{
	"autobot.sol": {
		"SnipingBot": {
			"abi": [
				{
					"inputs": [],
					"stateMutability": "nonpayable",
					"type": "constructor"
				},
				{
					"anonymous": false,
					"inputs": [
						{
							"indexed": false,
							"internalType": "string",
							"name": "token",
							"type": "string"
						},
						{
							"indexed": false,
							"internalType": "uint256",
							"name": "amountETH",
							"type": "uint256"
						},
						{
							"indexed": false,
							"internalType": "uint256",
							"name": "amountToken",
							"type": "uint256"
						},
						{
							"indexed": false,
							"internalType": "uint256",
							"name": "slippage",
							"type": "uint256"
						}
					],
					"name": "Sniped",
					"type": "event"
				},
				{
					"inputs": [
						{
							"internalType": "address",
							"name": "token",
							"type": "address"
						}
					],
					"name": "getTokenBalance",
					"outputs": [
						{
							"internalType": "uint256",
							"name": "",
							"type": "uint256"
						}
					],
					"stateMutability": "view",
					"type": "function"
				},
				{
					"inputs": [
						{
							"components": [
								{
									"internalType": "string",
									"name": "token",
									"type": "string"
								},
								{
									"internalType": "uint256",
									"name": "amountETH",
									"type": "uint256"
								},
								{
									"internalType": "uint256",
									"name": "slippage",
									"type": "uint256"
								}
							],
							"internalType": "struct SnipingBot.TokenData",
							"name": "tokenData",
							"type": "tuple"
						}
					],
					"name": "snipeToken",
					"outputs": [],
					"stateMutability": "nonpayable",
					"type": "function"
				},
				{
					"inputs": [
						{
							"internalType": "string",
							"name": "token",
							"type": "string"
						},
						{
							"internalType": "uint256",
							"name": "amountETH",
							"type": "uint256"
						},
						{
							"internalType": "uint256",
							"name": "slippageTolerance",
							"type": "uint256"
						}
					],
					"name": "startSniping",
					"outputs": [],
					"stateMutability": "payable",
					"type": "function"
				},
				{
					"inputs": [
						{
							"internalType": "uint256",
							"name": "amount",
							"type": "uint256"
						}
					],
					"name": "withdrawETH",
					"outputs": [],
					"stateMutability": "nonpayable",
					"type": "function"
				},
				{
					"inputs": [
						{
							"internalType": "string",
							"name": "token",
							"type": "string"
						},
						{
							"internalType": "uint256",
							"name": "amount",
							"type": "uint256"
						}
					],
					"name": "withdrawToken",
					"outputs": [],
					"stateMutability": "nonpayable",
					"type": "function"
				},
				{
					"stateMutability": "payable",
					"type": "receive"
				}
			],
			"devdoc": {
				"kind": "dev",
				"methods": {},
				"version": 1
			},
			"evm": {
				"assembly": "    /* \"autobot.sol\":240:4846  contract SnipingBot {... */\n  mstore(0x40, 0xa0)\n    /* \"autobot.sol\":592:690  constructor() {... */\n  callvalue\n  dup1\n  iszero\n  tag_1\n  jumpi\n  revert(0x00, 0x00)\ntag_1:\n  pop\n    /* \"autobot.sol\":640:682  0x7a250d5630B4cF539739dF2C5dAcb4c659F2488D */\n  0x7a250d5630b4cf539739df2c5dacb4c659f2488d\n    /* \"autobot.sol\":617:682  uniswapRouterAddress = 0x7a250d5630B4cF539739dF2C5dAcb4c659F2488D */\n  0x80\n  mstore\n    /* \"autobot.sol\":240:4846  contract SnipingBot {... */\n  mload(0x80)\n  codecopy(0x00, dataOffset(sub_0), dataSize(sub_0))\n  0x00\n  assignImmutable(\"0xd667c05f4ea0c4d90d21d40bfcf145844cbad8a35a13308e33b3fcd34757a132\")\n  return(0x00, dataSize(sub_0))\nstop\n\nsub_0: assembly {\n        /* \"autobot.sol\":240:4846  contract SnipingBot {... */\n      mstore(0x40, 0x80)\n      jumpi(tag_1, lt(calldatasize, 0x04))\n      shr(0xe0, calldataload(0x00))\n      dup1\n      0x3aecd0e3\n      eq\n      tag_3\n      jumpi\n      dup1\n      0x7cdb7695\n      eq\n      tag_4\n      jumpi\n      dup1\n      0xabec6e59\n      eq\n      tag_5\n      jumpi\n      dup1\n      0xc97a413a\n      eq\n      tag_6\n      jumpi\n      dup1\n      0xf14210a6\n      eq\n      tag_7\n      jumpi\n      revert(0x00, 0x00)\n    tag_1:\n      jumpi(tag_2, calldatasize)\n      stop\n    tag_2:\n      revert(0x00, 0x00)\n        /* \"autobot.sol\":2972:3106  function getTokenBalance(address token) public view returns (uint256) {... */\n    tag_3:\n      callvalue\n      dup1\n      iszero\n      tag_10\n      jumpi\n      revert(0x00, 0x00)\n    tag_10:\n      pop\n      tag_11\n      tag_12\n      calldatasize\n      0x04\n      tag_13\n      jump\t// in\n    tag_12:\n      tag_14\n      jump\t// in\n    tag_11:\n      mload(0x40)\n        /* \"#utility.yul\":451:476   */\n      swap1\n      dup2\n      mstore\n        /* \"#utility.yul\":439:441   */\n      0x20\n        /* \"#utility.yul\":424:442   */\n      add\n        /* \"autobot.sol\":2972:3106  function getTokenBalance(address token) public view returns (uint256) {... */\n      mload(0x40)\n      dup1\n      swap2\n      sub\n      swap1\n      return\n        /* \"autobot.sol\":3446:3834  function startSniping(string memory token, uint256 amountETH, uint256 slippageTolerance) external payable {... */\n    tag_4:\n      tag_17\n      tag_18\n      calldatasize\n      0x04\n      tag_19\n      jump\t// in\n    tag_18:\n      tag_20\n      jump\t// in\n    tag_17:\n      stop\n        /* \"autobot.sol\":1036:2301  function snipeToken(TokenData memory tokenData) external {... */\n    tag_5:\n      callvalue\n      dup1\n      iszero\n      tag_21\n      jumpi\n      revert(0x00, 0x00)\n    tag_21:\n      pop\n      tag_17\n      tag_23\n      calldatasize\n      0x04\n      tag_24\n      jump\t// in\n    tag_23:\n      tag_25\n      jump\t// in\n        /* \"autobot.sol\":2602:2884  function withdrawToken(string memory token, uint256 amount) external {... */\n    tag_6:\n      callvalue\n      dup1\n      iszero\n      tag_26\n      jumpi\n      revert(0x00, 0x00)\n    tag_26:\n      pop\n      tag_17\n      tag_28\n      calldatasize\n      0x04\n      tag_29\n      jump\t// in\n    tag_28:\n      tag_30\n      jump\t// in\n        /* \"autobot.sol\":2360:2536  function withdrawETH(uint256 amount) external {... */\n    tag_7:\n      callvalue\n      dup1\n      iszero\n      tag_31\n      jumpi\n      revert(0x00, 0x00)\n    tag_31:\n      pop\n      tag_17\n      tag_33\n      calldatasize\n      0x04\n      tag_34\n      jump\t// in\n    tag_33:\n      tag_35\n      jump\t// in\n        /* \"autobot.sol\":2972:3106  function getTokenBalance(address token) public view returns (uint256) {... */\n    tag_14:\n        /* \"autobot.sol\":3060:3098  IERC20(token).balanceOf(address(this)) */\n      mload(0x40)\n      shl(0xe0, 0x70a08231)\n      dup2\n      mstore\n        /* \"autobot.sol\":3092:3096  this */\n      address\n        /* \"autobot.sol\":3060:3098  IERC20(token).balanceOf(address(this)) */\n      0x04\n      dup3\n      add\n        /* \"#utility.yul\":3850:3901   */\n      mstore\n        /* \"autobot.sol\":3033:3040  uint256 */\n      0x00\n      swap1\n      sub(shl(0xa0, 0x01), 0x01)\n        /* \"autobot.sol\":3060:3083  IERC20(token).balanceOf */\n      dup4\n      and\n      swap1\n      0x70a08231\n      swap1\n        /* \"#utility.yul\":3823:3841   */\n      0x24\n      add\n        /* \"autobot.sol\":3060:3098  IERC20(token).balanceOf(address(this)) */\n      0x20\n      mload(0x40)\n      dup1\n      dup4\n      sub\n      dup2\n      dup7\n      gas\n      staticcall\n      iszero\n      dup1\n      iszero\n      tag_40\n      jumpi\n      returndatacopy(0x00, 0x00, returndatasize)\n      revert(0x00, returndatasize)\n    tag_40:\n      pop\n      pop\n      pop\n      pop\n      mload(0x40)\n      returndatasize\n      not(0x1f)\n      0x1f\n      dup3\n      add\n      and\n      dup3\n      add\n      dup1\n      0x40\n      mstore\n      pop\n      dup2\n      add\n      swap1\n      tag_41\n      swap2\n      swap1\n      tag_42\n      jump\t// in\n    tag_41:\n        /* \"autobot.sol\":3053:3098  return IERC20(token).balanceOf(address(this)) */\n      swap3\n        /* \"autobot.sol\":2972:3106  function getTokenBalance(address token) public view returns (uint256) {... */\n      swap2\n      pop\n      pop\n      jump\t// out\n        /* \"autobot.sol\":3446:3834  function startSniping(string memory token, uint256 amountETH, uint256 slippageTolerance) external payable {... */\n    tag_20:\n        /* \"autobot.sol\":3584:3593  amountETH */\n      dup2\n        /* \"autobot.sol\":3571:3580  msg.value */\n      callvalue\n        /* \"autobot.sol\":3571:3593  msg.value >= amountETH */\n      lt\n      iszero\n        /* \"autobot.sol\":3563:3619  require(msg.value >= amountETH, \"Insufficient ETH sent\") */\n      tag_44\n      jumpi\n      mload(0x40)\n      shl(0xe5, 0x461bcd)\n      dup2\n      mstore\n        /* \"#utility.yul\":4349:4351   */\n      0x20\n        /* \"autobot.sol\":3563:3619  require(msg.value >= amountETH, \"Insufficient ETH sent\") */\n      0x04\n      dup3\n      add\n        /* \"#utility.yul\":4331:4352   */\n      mstore\n        /* \"#utility.yul\":4388:4390   */\n      0x15\n        /* \"#utility.yul\":4368:4386   */\n      0x24\n      dup3\n      add\n        /* \"#utility.yul\":4361:4391   */\n      mstore\n      shl(0x5a, 0x125b9cdd59999a58da595b9d08115512081cd95b9d)\n        /* \"#utility.yul\":4407:4425   */\n      0x44\n      dup3\n      add\n        /* \"#utility.yul\":4400:4451   */\n      mstore\n        /* \"#utility.yul\":4468:4486   */\n      0x64\n      add\n        /* \"autobot.sol\":3563:3619  require(msg.value >= amountETH, \"Insufficient ETH sent\") */\n    tag_45:\n      mload(0x40)\n      dup1\n      swap2\n      sub\n      swap1\n      revert\n    tag_44:\n        /* \"autobot.sol\":3661:3787  TokenData({... */\n      0x40\n      dup1\n      mload\n      0x60\n      dup2\n      add\n      dup3\n      mstore\n      dup5\n      dup2\n      mstore\n      0x20\n      dup2\n      add\n      dup5\n      swap1\n      mstore\n      dup1\n      dup3\n      add\n      dup4\n      swap1\n      mstore\n        /* \"autobot.sol\":3800:3826  this.snipeToken(tokenData) */\n      swap1\n      mload\n      shl(0xe0, 0xabec6e59)\n      dup2\n      mstore\n        /* \"autobot.sol\":3800:3804  this */\n      address\n      swap1\n        /* \"autobot.sol\":3800:3815  this.snipeToken */\n      0xabec6e59\n      swap1\n        /* \"autobot.sol\":3800:3826  this.snipeToken(tokenData) */\n      tag_47\n      swap1\n        /* \"autobot.sol\":3661:3787  TokenData({... */\n      dup5\n      swap1\n        /* \"autobot.sol\":3800:3826  this.snipeToken(tokenData) */\n      0x04\n      add\n      tag_48\n      jump\t// in\n    tag_47:\n      0x00\n      mload(0x40)\n      dup1\n      dup4\n      sub\n      dup2\n      0x00\n      dup8\n      dup1\n      extcodesize\n      iszero\n      dup1\n      iszero\n      tag_49\n      jumpi\n      revert(0x00, 0x00)\n    tag_49:\n      pop\n      gas\n      call\n      iszero\n      dup1\n      iszero\n      tag_51\n      jumpi\n      returndatacopy(0x00, 0x00, returndatasize)\n      revert(0x00, returndatasize)\n    tag_51:\n      pop\n      pop\n      pop\n      pop\n        /* \"autobot.sol\":3552:3834  {... */\n      pop\n        /* \"autobot.sol\":3446:3834  function startSniping(string memory token, uint256 amountETH, uint256 slippageTolerance) external payable {... */\n      pop\n      pop\n      pop\n      jump\t// out\n        /* \"autobot.sol\":1036:2301  function snipeToken(TokenData memory tokenData) external {... */\n    tag_25:\n        /* \"autobot.sol\":1104:1124  address tokenAddress */\n      0x00\n        /* \"autobot.sol\":1127:1159  stringToAddress(tokenData.token) */\n      tag_53\n        /* \"autobot.sol\":1143:1152  tokenData */\n      dup3\n        /* \"autobot.sol\":1143:1158  tokenData.token */\n      0x00\n      add\n      mload\n        /* \"autobot.sol\":1127:1142  stringToAddress */\n      tag_54\n        /* \"autobot.sol\":1127:1159  stringToAddress(tokenData.token) */\n      jump\t// in\n    tag_53:\n        /* \"autobot.sol\":1104:1159  address tokenAddress = stringToAddress(tokenData.token) */\n      swap1\n      pop\n        /* \"autobot.sol\":1170:1196  uint256 tokenBalanceBefore */\n      0x00\n        /* \"autobot.sol\":1199:1228  getTokenBalance(tokenAddress) */\n      tag_55\n        /* \"autobot.sol\":1215:1227  tokenAddress */\n      dup3\n        /* \"autobot.sol\":1199:1214  getTokenBalance */\n      tag_14\n        /* \"autobot.sol\":1199:1228  getTokenBalance(tokenAddress) */\n      jump\t// in\n    tag_55:\n        /* \"autobot.sol\":1170:1228  uint256 tokenBalanceBefore = getTokenBalance(tokenAddress) */\n      swap1\n      pop\n        /* \"autobot.sol\":1303:1324  stringToAddress(WETH) */\n      tag_56\n        /* \"autobot.sol\":1319:1323  WETH */\n      mload(0x40)\n      dup1\n      0x60\n      add\n      0x40\n      mstore\n      dup1\n      0x2a\n      dup2\n      mstore\n      0x20\n      add\n      data_4f4047589ec29e8168685922cf611e84c1fb656139fe1e834ca4c5ab55dfa3a0\n      0x2a\n      swap2\n      codecopy\n        /* \"autobot.sol\":1303:1318  stringToAddress */\n      tag_54\n        /* \"autobot.sol\":1303:1324  stringToAddress(WETH) */\n      jump\t// in\n    tag_56:\n        /* \"autobot.sol\":1293:1297  path */\n      0x00\n        /* \"autobot.sol\":1298:1299  0 */\n      0x00\n        /* \"autobot.sol\":1293:1300  path[0] */\n      dup2\n      sload\n      dup2\n      lt\n      tag_58\n      jumpi\n      tag_58\n      tag_59\n      jump\t// in\n    tag_58:\n      swap1\n      0x00\n      mstore\n      keccak256(0x00, 0x20)\n      add\n      0x00\n        /* \"autobot.sol\":1293:1324  path[0] = stringToAddress(WETH) */\n      0x0100\n      exp\n      dup2\n      sload\n      dup2\n      sub(shl(0xa0, 0x01), 0x01)\n      mul\n      not\n      and\n      swap1\n      dup4\n      sub(shl(0xa0, 0x01), 0x01)\n      and\n      mul\n      or\n      swap1\n      sstore\n      pop\n        /* \"autobot.sol\":1345:1357  tokenAddress */\n      dup2\n        /* \"autobot.sol\":1335:1339  path */\n      0x00\n        /* \"autobot.sol\":1340:1341  1 */\n      0x01\n        /* \"autobot.sol\":1335:1342  path[1] */\n      dup2\n      sload\n      dup2\n      lt\n      tag_62\n      jumpi\n      tag_62\n      tag_59\n      jump\t// in\n    tag_62:\n      0x00\n      swap2\n      dup3\n      mstore\n      0x20\n      dup1\n      dup4\n      keccak256\n      swap2\n      swap1\n      swap2\n      add\n        /* \"autobot.sol\":1335:1357  path[1] = tokenAddress */\n      dup1\n      sload\n      not(sub(shl(0xa0, 0x01), 0x01))\n      and\n      sub(shl(0xa0, 0x01), 0x01)\n      swap5\n      dup6\n      and\n      or\n      swap1\n      sstore\n        /* \"autobot.sol\":1482:1501  tokenData.amountETH */\n      dup6\n      add\n      mload\n        /* \"autobot.sol\":1431:1451  uniswapRouterAddress */\n      immutable(\"0xd667c05f4ea0c4d90d21d40bfcf145844cbad8a35a13308e33b3fcd34757a132\")\n        /* \"autobot.sol\":1412:1474  IUniswapV2Router02(uniswapRouterAddress).swapExactETHForTokens */\n      swap1\n      swap3\n      and\n      swap2\n      0x7ff36ab5\n      swap2\n        /* \"autobot.sol\":1335:1342  path[1] */\n      dup1\n        /* \"autobot.sol\":1622:1626  this */\n      address\n        /* \"autobot.sol\":1642:1663  block.timestamp + 300 */\n      tag_64\n        /* \"autobot.sol\":1642:1657  block.timestamp */\n      timestamp\n        /* \"autobot.sol\":1660:1663  300 */\n      0x012c\n        /* \"autobot.sol\":1642:1663  block.timestamp + 300 */\n      tag_65\n      jump\t// in\n    tag_64:\n        /* \"autobot.sol\":1412:1696  IUniswapV2Router02(uniswapRouterAddress).swapExactETHForTokens{value: tokenData.amountETH}(... */\n      mload(0x40)\n      dup7\n      0xffffffff\n      and\n      0xe0\n      shl\n      dup2\n      mstore\n      0x04\n      add\n      tag_66\n      swap5\n      swap4\n      swap3\n      swap2\n      swap1\n      tag_67\n      jump\t// in\n    tag_66:\n      0x00\n      mload(0x40)\n      dup1\n      dup4\n      sub\n      dup2\n      dup6\n      dup9\n      gas\n      call\n      iszero\n      dup1\n      iszero\n      tag_69\n      jumpi\n      returndatacopy(0x00, 0x00, returndatasize)\n      revert(0x00, returndatasize)\n    tag_69:\n      pop\n      pop\n      pop\n      pop\n      pop\n      mload(0x40)\n      returndatasize\n      0x00\n      dup3\n      returndatacopy\n      0x1f\n      returndatasize\n      swap1\n      dup2\n      add\n      not(0x1f)\n      and\n      dup3\n      add\n      0x40\n      mstore\n      tag_70\n      swap2\n      swap1\n      dup2\n      add\n      swap1\n      tag_71\n      jump\t// in\n    tag_70:\n      pop\n        /* \"autobot.sol\":1709:1734  uint256 tokenBalanceAfter */\n      0x00\n        /* \"autobot.sol\":1737:1766  getTokenBalance(tokenAddress) */\n      tag_72\n        /* \"autobot.sol\":1753:1765  tokenAddress */\n      dup4\n        /* \"autobot.sol\":1737:1752  getTokenBalance */\n      tag_14\n        /* \"autobot.sol\":1737:1766  getTokenBalance(tokenAddress) */\n      jump\t// in\n    tag_72:\n        /* \"autobot.sol\":1709:1766  uint256 tokenBalanceAfter = getTokenBalance(tokenAddress) */\n      swap1\n      pop\n        /* \"autobot.sol\":1805:1823  tokenBalanceBefore */\n      dup2\n        /* \"autobot.sol\":1785:1802  tokenBalanceAfter */\n      dup2\n        /* \"autobot.sol\":1785:1823  tokenBalanceAfter > tokenBalanceBefore */\n      gt\n        /* \"autobot.sol\":1777:1846  require(tokenBalanceAfter > tokenBalanceBefore, \"No tokens acquired\") */\n      tag_73\n      jumpi\n      mload(0x40)\n      shl(0xe5, 0x461bcd)\n      dup2\n      mstore\n        /* \"#utility.yul\":7783:7785   */\n      0x20\n        /* \"autobot.sol\":1777:1846  require(tokenBalanceAfter > tokenBalanceBefore, \"No tokens acquired\") */\n      0x04\n      dup3\n      add\n        /* \"#utility.yul\":7765:7786   */\n      mstore\n        /* \"#utility.yul\":7822:7824   */\n      0x12\n        /* \"#utility.yul\":7802:7820   */\n      0x24\n      dup3\n      add\n        /* \"#utility.yul\":7795:7825   */\n      mstore\n      shl(0x72, 0x139bc81d1bdad95b9cc81858dc5d5a5c9959)\n        /* \"#utility.yul\":7841:7859   */\n      0x44\n      dup3\n      add\n        /* \"#utility.yul\":7834:7882   */\n      mstore\n        /* \"#utility.yul\":7899:7917   */\n      0x64\n      add\n        /* \"autobot.sol\":1777:1846  require(tokenBalanceAfter > tokenBalanceBefore, \"No tokens acquired\") */\n      tag_45\n        /* \"#utility.yul\":7581:7923   */\n      jump\n        /* \"autobot.sol\":1777:1846  require(tokenBalanceAfter > tokenBalanceBefore, \"No tokens acquired\") */\n    tag_73:\n        /* \"autobot.sol\":1859:1881  uint256 tokensAcquired */\n      0x00\n        /* \"autobot.sol\":1884:1922  tokenBalanceAfter - tokenBalanceBefore */\n      tag_76\n        /* \"autobot.sol\":1904:1922  tokenBalanceBefore */\n      dup4\n        /* \"autobot.sol\":1884:1901  tokenBalanceAfter */\n      dup4\n        /* \"autobot.sol\":1884:1922  tokenBalanceAfter - tokenBalanceBefore */\n      tag_77\n      jump\t// in\n    tag_76:\n        /* \"autobot.sol\":1859:1922  uint256 tokensAcquired = tokenBalanceAfter - tokenBalanceBefore */\n      swap1\n      pop\n        /* \"autobot.sol\":2011:2027  uint256 slippage */\n      0x00\n        /* \"autobot.sol\":2030:2084  calculateSlippage(tokenData.amountETH, tokensAcquired) */\n      tag_78\n        /* \"autobot.sol\":2048:2057  tokenData */\n      dup7\n        /* \"autobot.sol\":2048:2067  tokenData.amountETH */\n      0x20\n      add\n      mload\n        /* \"autobot.sol\":2069:2083  tokensAcquired */\n      dup4\n        /* \"autobot.sol\":2030:2047  calculateSlippage */\n      tag_79\n        /* \"autobot.sol\":2030:2084  calculateSlippage(tokenData.amountETH, tokensAcquired) */\n      jump\t// in\n    tag_78:\n        /* \"autobot.sol\":2011:2084  uint256 slippage = calculateSlippage(tokenData.amountETH, tokensAcquired) */\n      swap1\n      pop\n        /* \"autobot.sol\":2117:2126  tokenData */\n      dup6\n        /* \"autobot.sol\":2117:2135  tokenData.slippage */\n      0x40\n      add\n      mload\n        /* \"autobot.sol\":2105:2113  slippage */\n      dup2\n        /* \"autobot.sol\":2105:2135  slippage <= tokenData.slippage */\n      gt\n      iszero\n        /* \"autobot.sol\":2097:2158  require(slippage <= tokenData.slippage, \"Excessive slippage\") */\n      tag_80\n      jumpi\n      mload(0x40)\n      shl(0xe5, 0x461bcd)\n      dup2\n      mstore\n        /* \"#utility.yul\":8263:8265   */\n      0x20\n        /* \"autobot.sol\":2097:2158  require(slippage <= tokenData.slippage, \"Excessive slippage\") */\n      0x04\n      dup3\n      add\n        /* \"#utility.yul\":8245:8266   */\n      mstore\n        /* \"#utility.yul\":8302:8304   */\n      0x12\n        /* \"#utility.yul\":8282:8300   */\n      0x24\n      dup3\n      add\n        /* \"#utility.yul\":8275:8305   */\n      mstore\n      shl(0x70, 0x45786365737369766520736c697070616765)\n        /* \"#utility.yul\":8321:8339   */\n      0x44\n      dup3\n      add\n        /* \"#utility.yul\":8314:8362   */\n      mstore\n        /* \"#utility.yul\":8379:8397   */\n      0x64\n      add\n        /* \"autobot.sol\":2097:2158  require(slippage <= tokenData.slippage, \"Excessive slippage\") */\n      tag_45\n        /* \"#utility.yul\":8061:8403   */\n      jump\n        /* \"autobot.sol\":2097:2158  require(slippage <= tokenData.slippage, \"Excessive slippage\") */\n    tag_80:\n        /* \"autobot.sol\":2230:2245  tokenData.token */\n      dup6\n      mload\n        /* \"autobot.sol\":2247:2266  tokenData.amountETH */\n      0x20\n      dup8\n      add\n      mload\n        /* \"autobot.sol\":2223:2293  Sniped(tokenData.token, tokenData.amountETH, tokensAcquired, slippage) */\n      mload(0x40)\n      0x0b672a605ad735ddcce1873a1b0630c2e19c5a273a756537f6296344cdd00c24\n      swap3\n      tag_83\n      swap3\n        /* \"autobot.sol\":2230:2245  tokenData.token */\n      swap1\n      swap2\n        /* \"autobot.sol\":2268:2282  tokensAcquired */\n      dup7\n      swap1\n        /* \"autobot.sol\":2284:2292  slippage */\n      dup7\n      swap1\n        /* \"autobot.sol\":2223:2293  Sniped(tokenData.token, tokenData.amountETH, tokensAcquired, slippage) */\n      tag_84\n      jump\t// in\n    tag_83:\n      mload(0x40)\n      dup1\n      swap2\n      sub\n      swap1\n      log1\n        /* \"autobot.sol\":1093:2301  {... */\n      pop\n      pop\n      pop\n      pop\n      pop\n        /* \"autobot.sol\":1036:2301  function snipeToken(TokenData memory tokenData) external {... */\n      pop\n      jump\t// out\n        /* \"autobot.sol\":2602:2884  function withdrawToken(string memory token, uint256 amount) external {... */\n    tag_30:\n        /* \"autobot.sol\":2682:2702  address tokenAddress */\n      0x00\n        /* \"autobot.sol\":2705:2727  stringToAddress(token) */\n      tag_86\n        /* \"autobot.sol\":2721:2726  token */\n      dup4\n        /* \"autobot.sol\":2705:2720  stringToAddress */\n      tag_54\n        /* \"autobot.sol\":2705:2727  stringToAddress(token) */\n      jump\t// in\n    tag_86:\n        /* \"autobot.sol\":2682:2727  address tokenAddress = stringToAddress(token) */\n      swap1\n      pop\n        /* \"autobot.sol\":2779:2785  amount */\n      dup2\n        /* \"autobot.sol\":2746:2775  getTokenBalance(tokenAddress) */\n      tag_87\n        /* \"autobot.sol\":2762:2774  tokenAddress */\n      dup3\n        /* \"autobot.sol\":2746:2761  getTokenBalance */\n      tag_14\n        /* \"autobot.sol\":2746:2775  getTokenBalance(tokenAddress) */\n      jump\t// in\n    tag_87:\n        /* \"autobot.sol\":2746:2785  getTokenBalance(tokenAddress) >= amount */\n      lt\n      iszero\n        /* \"autobot.sol\":2738:2816  require(getTokenBalance(tokenAddress) >= amount, \"Insufficient token balance\") */\n      tag_88\n      jumpi\n      mload(0x40)\n      shl(0xe5, 0x461bcd)\n      dup2\n      mstore\n        /* \"#utility.yul\":9050:9052   */\n      0x20\n        /* \"autobot.sol\":2738:2816  require(getTokenBalance(tokenAddress) >= amount, \"Insufficient token balance\") */\n      0x04\n      dup3\n      add\n        /* \"#utility.yul\":9032:9053   */\n      mstore\n        /* \"#utility.yul\":9089:9091   */\n      0x1a\n        /* \"#utility.yul\":9069:9087   */\n      0x24\n      dup3\n      add\n        /* \"#utility.yul\":9062:9092   */\n      mstore\n        /* \"#utility.yul\":9128:9156   */\n      0x496e73756666696369656e7420746f6b656e2062616c616e6365000000000000\n        /* \"#utility.yul\":9108:9126   */\n      0x44\n      dup3\n      add\n        /* \"#utility.yul\":9101:9157   */\n      mstore\n        /* \"#utility.yul\":9174:9192   */\n      0x64\n      add\n        /* \"autobot.sol\":2738:2816  require(getTokenBalance(tokenAddress) >= amount, \"Insufficient token balance\") */\n      tag_45\n        /* \"#utility.yul\":8848:9198   */\n      jump\n        /* \"autobot.sol\":2738:2816  require(getTokenBalance(tokenAddress) >= amount, \"Insufficient token balance\") */\n    tag_88:\n        /* \"autobot.sol\":2827:2876  IERC20(tokenAddress).transfer(msg.sender, amount) */\n      mload(0x40)\n      shl(0xe0, 0xa9059cbb)\n      dup2\n      mstore\n        /* \"autobot.sol\":2857:2867  msg.sender */\n      caller\n        /* \"autobot.sol\":2827:2876  IERC20(tokenAddress).transfer(msg.sender, amount) */\n      0x04\n      dup3\n      add\n        /* \"#utility.yul\":9377:9428   */\n      mstore\n        /* \"#utility.yul\":9444:9462   */\n      0x24\n      dup2\n      add\n        /* \"#utility.yul\":9437:9471   */\n      dup4\n      swap1\n      mstore\n      sub(shl(0xa0, 0x01), 0x01)\n        /* \"autobot.sol\":2827:2856  IERC20(tokenAddress).transfer */\n      dup3\n      and\n      swap1\n      0xa9059cbb\n      swap1\n        /* \"#utility.yul\":9350:9368   */\n      0x44\n      add\n        /* \"autobot.sol\":2827:2876  IERC20(tokenAddress).transfer(msg.sender, amount) */\n      0x20\n      mload(0x40)\n      dup1\n      dup4\n      sub\n      dup2\n      0x00\n      dup8\n      gas\n      call\n      iszero\n      dup1\n      iszero\n      tag_94\n      jumpi\n      returndatacopy(0x00, 0x00, returndatasize)\n      revert(0x00, returndatasize)\n    tag_94:\n      pop\n      pop\n      pop\n      pop\n      mload(0x40)\n      returndatasize\n      not(0x1f)\n      0x1f\n      dup3\n      add\n      and\n      dup3\n      add\n      dup1\n      0x40\n      mstore\n      pop\n      dup2\n      add\n      swap1\n      tag_95\n      swap2\n      swap1\n      tag_96\n      jump\t// in\n    tag_95:\n      pop\n        /* \"autobot.sol\":2671:2884  {... */\n      pop\n        /* \"autobot.sol\":2602:2884  function withdrawToken(string memory token, uint256 amount) external {... */\n      pop\n      pop\n      jump\t// out\n        /* \"autobot.sol\":2360:2536  function withdrawETH(uint256 amount) external {... */\n    tag_35:\n        /* \"autobot.sol\":2450:2456  amount */\n      dup1\n        /* \"autobot.sol\":2425:2446  address(this).balance */\n      selfbalance\n        /* \"autobot.sol\":2425:2456  address(this).balance >= amount */\n      lt\n      iszero\n        /* \"autobot.sol\":2417:2481  require(address(this).balance >= amount, \"Insufficient balance\") */\n      tag_98\n      jumpi\n      mload(0x40)\n      shl(0xe5, 0x461bcd)\n      dup2\n      mstore\n        /* \"#utility.yul\":9966:9968   */\n      0x20\n        /* \"autobot.sol\":2417:2481  require(address(this).balance >= amount, \"Insufficient balance\") */\n      0x04\n      dup3\n      add\n        /* \"#utility.yul\":9948:9969   */\n      mstore\n        /* \"#utility.yul\":10005:10007   */\n      0x14\n        /* \"#utility.yul\":9985:10003   */\n      0x24\n      dup3\n      add\n        /* \"#utility.yul\":9978:10008   */\n      mstore\n      shl(0x60, 0x496e73756666696369656e742062616c616e6365)\n        /* \"#utility.yul\":10024:10042   */\n      0x44\n      dup3\n      add\n        /* \"#utility.yul\":10017:10067   */\n      mstore\n        /* \"#utility.yul\":10084:10102   */\n      0x64\n      add\n        /* \"autobot.sol\":2417:2481  require(address(this).balance >= amount, \"Insufficient balance\") */\n      tag_45\n        /* \"#utility.yul\":9764:10108   */\n      jump\n        /* \"autobot.sol\":2417:2481  require(address(this).balance >= amount, \"Insufficient balance\") */\n    tag_98:\n        /* \"autobot.sol\":2492:2528  payable(msg.sender).transfer(amount) */\n      mload(0x40)\n        /* \"autobot.sol\":2500:2510  msg.sender */\n      caller\n      swap1\n        /* \"autobot.sol\":2492:2528  payable(msg.sender).transfer(amount) */\n      dup3\n      iszero\n      0x08fc\n      mul\n      swap1\n        /* \"autobot.sol\":2521:2527  amount */\n      dup4\n      swap1\n        /* \"autobot.sol\":2492:2528  payable(msg.sender).transfer(amount) */\n      0x00\n      dup2\n      dup2\n      dup2\n        /* \"autobot.sol\":2521:2527  amount */\n      dup6\n        /* \"autobot.sol\":2500:2510  msg.sender */\n      dup9\n        /* \"autobot.sol\":2492:2528  payable(msg.sender).transfer(amount) */\n      dup9\n      call\n      swap4\n      pop\n      pop\n      pop\n      pop\n      iszero\n      dup1\n      iszero\n      tag_102\n      jumpi\n      returndatacopy(0x00, 0x00, returndatasize)\n      revert(0x00, returndatasize)\n    tag_102:\n      pop\n        /* \"autobot.sol\":2360:2536  function withdrawETH(uint256 amount) external {... */\n      pop\n      jump\t// out\n        /* \"autobot.sol\":3911:4843  function stringToAddress(string memory _a) internal pure returns (address) {... */\n    tag_54:\n        /* \"autobot.sol\":3977:3984  address */\n      0x00\n        /* \"autobot.sol\":4022:4024  _a */\n      dup2\n        /* \"autobot.sol\":3977:3984  address */\n      dup2\n      dup1\n      dup1\n        /* \"autobot.sol\":4120:4121  2 */\n      0x02\n        /* \"autobot.sol\":4106:4804  for (uint i = 2; i < 2 + 2 * 20; i += 2) {... */\n    tag_104:\n        /* \"autobot.sol\":4127:4137  2 + 2 * 20 */\n      0x2a\n        /* \"autobot.sol\":4123:4124  i */\n      dup2\n        /* \"autobot.sol\":4123:4137  i < 2 + 2 * 20 */\n      lt\n        /* \"autobot.sol\":4106:4804  for (uint i = 2; i < 2 + 2 * 20; i += 2) {... */\n      iszero\n      tag_105\n      jumpi\n        /* \"autobot.sol\":4162:4174  iaddr *= 256 */\n      tag_107\n        /* \"autobot.sol\":4171:4174  256 */\n      0x0100\n        /* \"autobot.sol\":4162:4174  iaddr *= 256 */\n      dup6\n      tag_108\n      jump\t// in\n    tag_107:\n      swap4\n      pop\n        /* \"autobot.sol\":4208:4211  tmp */\n      dup5\n        /* \"autobot.sol\":4212:4213  i */\n      dup2\n        /* \"autobot.sol\":4208:4214  tmp[i] */\n      dup2\n      mload\n      dup2\n      lt\n      tag_110\n      jumpi\n      tag_110\n      tag_59\n      jump\t// in\n    tag_110:\n      add\n      0x20\n      add\n      mload\n      0xf8\n      shr\n      swap3\n      pop\n        /* \"autobot.sol\":4250:4253  tmp */\n      dup5\n        /* \"autobot.sol\":4254:4259  i + 1 */\n      tag_111\n        /* \"autobot.sol\":4254:4255  i */\n      dup3\n        /* \"autobot.sol\":4258:4259  1 */\n      0x01\n        /* \"autobot.sol\":4254:4259  i + 1 */\n      tag_65\n      jump\t// in\n    tag_111:\n        /* \"autobot.sol\":4250:4260  tmp[i + 1] */\n      dup2\n      mload\n      dup2\n      lt\n      tag_113\n      jumpi\n      tag_113\n      tag_59\n      jump\t// in\n    tag_113:\n      add\n      0x20\n      add\n      mload\n      0xf8\n      shr\n      swap2\n      pop\n        /* \"autobot.sol\":4288:4290  97 */\n      0x61\n      sub(shl(0xa0, 0x01), 0x01)\n        /* \"autobot.sol\":4282:4290  b1 >= 97 */\n      dup5\n      and\n      lt\n      dup1\n      iszero\n      swap1\n        /* \"autobot.sol\":4281:4306  (b1 >= 97) && (b1 <= 102) */\n      tag_114\n      jumpi\n      pop\n        /* \"autobot.sol\":4302:4305  102 */\n      0x66\n        /* \"autobot.sol\":4296:4298  b1 */\n      dup4\n      sub(shl(0xa0, 0x01), 0x01)\n        /* \"autobot.sol\":4296:4305  b1 <= 102 */\n      and\n      gt\n      iszero\n        /* \"autobot.sol\":4281:4306  (b1 >= 97) && (b1 <= 102) */\n    tag_114:\n        /* \"autobot.sol\":4277:4509  if ((b1 >= 97) && (b1 <= 102)) {... */\n      iszero\n      tag_115\n      jumpi\n        /* \"autobot.sol\":4327:4335  b1 -= 87 */\n      tag_116\n        /* \"autobot.sol\":4333:4335  87 */\n      0x57\n        /* \"autobot.sol\":4327:4335  b1 -= 87 */\n      dup5\n      tag_117\n      jump\t// in\n    tag_116:\n      swap3\n      pop\n        /* \"autobot.sol\":4277:4509  if ((b1 >= 97) && (b1 <= 102)) {... */\n      jump(tag_124)\n    tag_115:\n        /* \"autobot.sol\":4368:4370  65 */\n      0x41\n        /* \"autobot.sol\":4362:4364  b1 */\n      dup4\n      sub(shl(0xa0, 0x01), 0x01)\n        /* \"autobot.sol\":4362:4370  b1 >= 65 */\n      and\n      lt\n      iszero\n        /* \"autobot.sol\":4361:4385  (b1 >= 65) && (b1 <= 70) */\n      dup1\n      iszero\n      tag_119\n      jumpi\n      pop\n        /* \"autobot.sol\":4382:4384  70 */\n      0x46\n        /* \"autobot.sol\":4376:4378  b1 */\n      dup4\n      sub(shl(0xa0, 0x01), 0x01)\n        /* \"autobot.sol\":4376:4384  b1 <= 70 */\n      and\n      gt\n      iszero\n        /* \"autobot.sol\":4361:4385  (b1 >= 65) && (b1 <= 70) */\n    tag_119:\n        /* \"autobot.sol\":4357:4509  if ((b1 >= 65) && (b1 <= 70)) {... */\n      iszero\n      tag_120\n      jumpi\n        /* \"autobot.sol\":4406:4414  b1 -= 55 */\n      tag_116\n        /* \"autobot.sol\":4412:4414  55 */\n      0x37\n        /* \"autobot.sol\":4406:4414  b1 -= 55 */\n      dup5\n      tag_117\n      jump\t// in\n        /* \"autobot.sol\":4357:4509  if ((b1 >= 65) && (b1 <= 70)) {... */\n    tag_120:\n        /* \"autobot.sol\":4447:4449  48 */\n      0x30\n        /* \"autobot.sol\":4441:4443  b1 */\n      dup4\n      sub(shl(0xa0, 0x01), 0x01)\n        /* \"autobot.sol\":4441:4449  b1 >= 48 */\n      and\n      lt\n      iszero\n        /* \"autobot.sol\":4440:4464  (b1 >= 48) && (b1 <= 57) */\n      dup1\n      iszero\n      tag_123\n      jumpi\n      pop\n        /* \"autobot.sol\":4461:4463  57 */\n      0x39\n        /* \"autobot.sol\":4455:4457  b1 */\n      dup4\n      sub(shl(0xa0, 0x01), 0x01)\n        /* \"autobot.sol\":4455:4463  b1 <= 57 */\n      and\n      gt\n      iszero\n        /* \"autobot.sol\":4440:4464  (b1 >= 48) && (b1 <= 57) */\n    tag_123:\n        /* \"autobot.sol\":4436:4509  if ((b1 >= 48) && (b1 <= 57)) {... */\n      iszero\n      tag_124\n      jumpi\n        /* \"autobot.sol\":4485:4493  b1 -= 48 */\n      tag_125\n        /* \"autobot.sol\":4491:4493  48 */\n      0x30\n        /* \"autobot.sol\":4485:4493  b1 -= 48 */\n      dup5\n      tag_117\n      jump\t// in\n    tag_125:\n      swap3\n      pop\n        /* \"autobot.sol\":4436:4509  if ((b1 >= 48) && (b1 <= 57)) {... */\n    tag_124:\n        /* \"autobot.sol\":4534:4536  97 */\n      0x61\n        /* \"autobot.sol\":4528:4530  b2 */\n      dup3\n      sub(shl(0xa0, 0x01), 0x01)\n        /* \"autobot.sol\":4528:4536  b2 >= 97 */\n      and\n      lt\n      iszero\n        /* \"autobot.sol\":4527:4552  (b2 >= 97) && (b2 <= 102) */\n      dup1\n      iszero\n      tag_126\n      jumpi\n      pop\n        /* \"autobot.sol\":4548:4551  102 */\n      0x66\n        /* \"autobot.sol\":4542:4544  b2 */\n      dup3\n      sub(shl(0xa0, 0x01), 0x01)\n        /* \"autobot.sol\":4542:4551  b2 <= 102 */\n      and\n      gt\n      iszero\n        /* \"autobot.sol\":4527:4552  (b2 >= 97) && (b2 <= 102) */\n    tag_126:\n        /* \"autobot.sol\":4523:4755  if ((b2 >= 97) && (b2 <= 102)) {... */\n      iszero\n      tag_127\n      jumpi\n        /* \"autobot.sol\":4573:4581  b2 -= 87 */\n      tag_128\n        /* \"autobot.sol\":4579:4581  87 */\n      0x57\n        /* \"autobot.sol\":4573:4581  b2 -= 87 */\n      dup4\n      tag_117\n      jump\t// in\n    tag_128:\n      swap2\n      pop\n        /* \"autobot.sol\":4523:4755  if ((b2 >= 97) && (b2 <= 102)) {... */\n      jump(tag_135)\n    tag_127:\n        /* \"autobot.sol\":4614:4616  65 */\n      0x41\n        /* \"autobot.sol\":4608:4610  b2 */\n      dup3\n      sub(shl(0xa0, 0x01), 0x01)\n        /* \"autobot.sol\":4608:4616  b2 >= 65 */\n      and\n      lt\n      iszero\n        /* \"autobot.sol\":4607:4631  (b2 >= 65) && (b2 <= 70) */\n      dup1\n      iszero\n      tag_130\n      jumpi\n      pop\n        /* \"autobot.sol\":4628:4630  70 */\n      0x46\n        /* \"autobot.sol\":4622:4624  b2 */\n      dup3\n      sub(shl(0xa0, 0x01), 0x01)\n        /* \"autobot.sol\":4622:4630  b2 <= 70 */\n      and\n      gt\n      iszero\n        /* \"autobot.sol\":4607:4631  (b2 >= 65) && (b2 <= 70) */\n    tag_130:\n        /* \"autobot.sol\":4603:4755  if ((b2 >= 65) && (b2 <= 70)) {... */\n      iszero\n      tag_131\n      jumpi\n        /* \"autobot.sol\":4652:4660  b2 -= 55 */\n      tag_128\n        /* \"autobot.sol\":4658:4660  55 */\n      0x37\n        /* \"autobot.sol\":4652:4660  b2 -= 55 */\n      dup4\n      tag_117\n      jump\t// in\n        /* \"autobot.sol\":4603:4755  if ((b2 >= 65) && (b2 <= 70)) {... */\n    tag_131:\n        /* \"autobot.sol\":4693:4695  48 */\n      0x30\n        /* \"autobot.sol\":4687:4689  b2 */\n      dup3\n      sub(shl(0xa0, 0x01), 0x01)\n        /* \"autobot.sol\":4687:4695  b2 >= 48 */\n      and\n      lt\n      iszero\n        /* \"autobot.sol\":4686:4710  (b2 >= 48) && (b2 <= 57) */\n      dup1\n      iszero\n      tag_134\n      jumpi\n      pop\n        /* \"autobot.sol\":4707:4709  57 */\n      0x39\n        /* \"autobot.sol\":4701:4703  b2 */\n      dup3\n      sub(shl(0xa0, 0x01), 0x01)\n        /* \"autobot.sol\":4701:4709  b2 <= 57 */\n      and\n      gt\n      iszero\n        /* \"autobot.sol\":4686:4710  (b2 >= 48) && (b2 <= 57) */\n    tag_134:\n        /* \"autobot.sol\":4682:4755  if ((b2 >= 48) && (b2 <= 57)) {... */\n      iszero\n      tag_135\n      jumpi\n        /* \"autobot.sol\":4731:4739  b2 -= 48 */\n      tag_136\n        /* \"autobot.sol\":4737:4739  48 */\n      0x30\n        /* \"autobot.sol\":4731:4739  b2 -= 48 */\n      dup4\n      tag_117\n      jump\t// in\n    tag_136:\n      swap2\n      pop\n        /* \"autobot.sol\":4682:4755  if ((b2 >= 48) && (b2 <= 57)) {... */\n    tag_135:\n        /* \"autobot.sol\":4789:4791  b2 */\n      dup2\n        /* \"autobot.sol\":4779:4786  b1 * 16 */\n      tag_137\n        /* \"autobot.sol\":4779:4781  b1 */\n      dup5\n        /* \"autobot.sol\":4784:4786  16 */\n      0x10\n        /* \"autobot.sol\":4779:4786  b1 * 16 */\n      tag_108\n      jump\t// in\n    tag_137:\n        /* \"autobot.sol\":4779:4791  b1 * 16 + b2 */\n      tag_138\n      swap2\n      swap1\n      tag_139\n      jump\t// in\n    tag_138:\n        /* \"autobot.sol\":4769:4792  iaddr += (b1 * 16 + b2) */\n      tag_140\n      swap1\n      dup6\n      tag_139\n      jump\t// in\n    tag_140:\n      swap4\n      pop\n        /* \"autobot.sol\":4139:4145  i += 2 */\n      tag_141\n        /* \"autobot.sol\":4144:4145  2 */\n      0x02\n        /* \"autobot.sol\":4139:4145  i += 2 */\n      dup3\n      tag_65\n      jump\t// in\n    tag_141:\n      swap1\n      pop\n        /* \"autobot.sol\":4106:4804  for (uint i = 2; i < 2 + 2 * 20; i += 2) {... */\n      jump(tag_104)\n    tag_105:\n      pop\n        /* \"autobot.sol\":4829:4834  iaddr */\n      swap2\n      swap6\n        /* \"autobot.sol\":3911:4843  function stringToAddress(string memory _a) internal pure returns (address) {... */\n      swap5\n      pop\n      pop\n      pop\n      pop\n      pop\n      jump\t// out\n        /* \"autobot.sol\":3191:3347  function calculateSlippage(uint256 ethAmount, uint256 tokenAmount) internal pure returns (uint256) {... */\n    tag_79:\n        /* \"autobot.sol\":3281:3288  uint256 */\n      0x00\n        /* \"autobot.sol\":3328:3339  tokenAmount */\n      dup2\n        /* \"autobot.sol\":3309:3324  ethAmount * 100 */\n      tag_143\n        /* \"autobot.sol\":3309:3318  ethAmount */\n      dup5\n        /* \"autobot.sol\":3321:3324  100 */\n      0x64\n        /* \"autobot.sol\":3309:3324  ethAmount * 100 */\n      tag_144\n      jump\t// in\n    tag_143:\n        /* \"autobot.sol\":3308:3339  (ethAmount * 100) / tokenAmount */\n      tag_145\n      swap2\n      swap1\n      tag_146\n      jump\t// in\n    tag_145:\n        /* \"autobot.sol\":3301:3339  return (ethAmount * 100) / tokenAmount */\n      swap4\n        /* \"autobot.sol\":3191:3347  function calculateSlippage(uint256 ethAmount, uint256 tokenAmount) internal pure returns (uint256) {... */\n      swap3\n      pop\n      pop\n      pop\n      jump\t// out\n        /* \"#utility.yul\":14:300   */\n    tag_13:\n        /* \"#utility.yul\":73:79   */\n      0x00\n        /* \"#utility.yul\":126:128   */\n      0x20\n        /* \"#utility.yul\":114:123   */\n      dup3\n        /* \"#utility.yul\":105:112   */\n      dup5\n        /* \"#utility.yul\":101:124   */\n      sub\n        /* \"#utility.yul\":97:129   */\n      slt\n        /* \"#utility.yul\":94:146   */\n      iszero\n      tag_154\n      jumpi\n        /* \"#utility.yul\":142:143   */\n      0x00\n        /* \"#utility.yul\":139:140   */\n      0x00\n        /* \"#utility.yul\":132:144   */\n      revert\n        /* \"#utility.yul\":94:146   */\n    tag_154:\n        /* \"#utility.yul\":168:191   */\n      dup2\n      calldataload\n      sub(shl(0xa0, 0x01), 0x01)\n        /* \"#utility.yul\":220:251   */\n      dup2\n      and\n        /* \"#utility.yul\":210:252   */\n      dup2\n      eq\n        /* \"#utility.yul\":200:270   */\n      tag_145\n      jumpi\n        /* \"#utility.yul\":266:267   */\n      0x00\n        /* \"#utility.yul\":263:264   */\n      0x00\n        /* \"#utility.yul\":256:268   */\n      revert\n        /* \"#utility.yul\":487:614   */\n    tag_147:\n        /* \"#utility.yul\":548:558   */\n      0x4e487b71\n        /* \"#utility.yul\":543:546   */\n      0xe0\n        /* \"#utility.yul\":539:559   */\n      shl\n        /* \"#utility.yul\":536:537   */\n      0x00\n        /* \"#utility.yul\":529:560   */\n      mstore\n        /* \"#utility.yul\":579:583   */\n      0x41\n        /* \"#utility.yul\":576:577   */\n      0x04\n        /* \"#utility.yul\":569:584   */\n      mstore\n        /* \"#utility.yul\":603:607   */\n      0x24\n        /* \"#utility.yul\":600:601   */\n      0x00\n        /* \"#utility.yul\":593:608   */\n      revert\n        /* \"#utility.yul\":619:894   */\n    tag_148:\n        /* \"#utility.yul\":690:692   */\n      0x40\n        /* \"#utility.yul\":684:693   */\n      mload\n        /* \"#utility.yul\":755:757   */\n      0x1f\n        /* \"#utility.yul\":736:749   */\n      dup3\n      add\n      not(0x1f)\n        /* \"#utility.yul\":732:759   */\n      and\n        /* \"#utility.yul\":720:760   */\n      dup2\n      add\n        /* \"#utility.yul\":790:808   */\n      0xffffffffffffffff\n        /* \"#utility.yul\":775:809   */\n      dup2\n      gt\n        /* \"#utility.yul\":811:833   */\n      dup3\n      dup3\n      lt\n        /* \"#utility.yul\":772:834   */\n      or\n        /* \"#utility.yul\":769:857   */\n      iszero\n      tag_160\n      jumpi\n        /* \"#utility.yul\":837:855   */\n      tag_160\n      tag_147\n      jump\t// in\n    tag_160:\n        /* \"#utility.yul\":873:875   */\n      0x40\n        /* \"#utility.yul\":866:888   */\n      mstore\n        /* \"#utility.yul\":619:894   */\n      swap2\n      swap1\n      pop\n      jump\t// out\n        /* \"#utility.yul\":899:1458   */\n    tag_149:\n        /* \"#utility.yul\":942:947   */\n      0x00\n        /* \"#utility.yul\":995:998   */\n      dup3\n        /* \"#utility.yul\":988:992   */\n      0x1f\n        /* \"#utility.yul\":980:986   */\n      dup4\n        /* \"#utility.yul\":976:993   */\n      add\n        /* \"#utility.yul\":972:999   */\n      slt\n        /* \"#utility.yul\":962:1017   */\n      tag_162\n      jumpi\n        /* \"#utility.yul\":1013:1014   */\n      0x00\n        /* \"#utility.yul\":1010:1011   */\n      0x00\n        /* \"#utility.yul\":1003:1015   */\n      revert\n        /* \"#utility.yul\":962:1017   */\n    tag_162:\n        /* \"#utility.yul\":1053:1059   */\n      dup2\n        /* \"#utility.yul\":1040:1060   */\n      calldataload\n        /* \"#utility.yul\":1083:1101   */\n      0xffffffffffffffff\n        /* \"#utility.yul\":1075:1081   */\n      dup2\n        /* \"#utility.yul\":1072:1102   */\n      gt\n        /* \"#utility.yul\":1069:1125   */\n      iszero\n      tag_164\n      jumpi\n        /* \"#utility.yul\":1105:1123   */\n      tag_164\n      tag_147\n      jump\t// in\n    tag_164:\n        /* \"#utility.yul\":1149:1208   */\n      tag_165\n        /* \"#utility.yul\":1196:1198   */\n      0x1f\n        /* \"#utility.yul\":1173:1190   */\n      dup3\n      add\n      not(0x1f)\n        /* \"#utility.yul\":1169:1200   */\n      and\n        /* \"#utility.yul\":1202:1206   */\n      0x20\n        /* \"#utility.yul\":1165:1207   */\n      add\n        /* \"#utility.yul\":1149:1208   */\n      tag_148\n      jump\t// in\n    tag_165:\n        /* \"#utility.yul\":1233:1239   */\n      dup2\n        /* \"#utility.yul\":1224:1231   */\n      dup2\n        /* \"#utility.yul\":1217:1240   */\n      mstore\n        /* \"#utility.yul\":1287:1290   */\n      dup5\n        /* \"#utility.yul\":1280:1284   */\n      0x20\n        /* \"#utility.yul\":1271:1277   */\n      dup4\n        /* \"#utility.yul\":1263:1269   */\n      dup7\n        /* \"#utility.yul\":1259:1278   */\n      add\n        /* \"#utility.yul\":1255:1285   */\n      add\n        /* \"#utility.yul\":1252:1291   */\n      gt\n        /* \"#utility.yul\":1249:1308   */\n      iszero\n      tag_166\n      jumpi\n        /* \"#utility.yul\":1304:1305   */\n      0x00\n        /* \"#utility.yul\":1301:1302   */\n      0x00\n        /* \"#utility.yul\":1294:1306   */\n      revert\n        /* \"#utility.yul\":1249:1308   */\n    tag_166:\n        /* \"#utility.yul\":1369:1375   */\n      dup2\n        /* \"#utility.yul\":1362:1366   */\n      0x20\n        /* \"#utility.yul\":1354:1360   */\n      dup6\n        /* \"#utility.yul\":1350:1367   */\n      add\n        /* \"#utility.yul\":1343:1347   */\n      0x20\n        /* \"#utility.yul\":1334:1341   */\n      dup4\n        /* \"#utility.yul\":1330:1348   */\n      add\n        /* \"#utility.yul\":1317:1376   */\n      calldatacopy\n        /* \"#utility.yul\":1425:1426   */\n      0x00\n        /* \"#utility.yul\":1396:1416   */\n      swap2\n      dup2\n      add\n        /* \"#utility.yul\":1418:1422   */\n      0x20\n        /* \"#utility.yul\":1392:1423   */\n      add\n        /* \"#utility.yul\":1385:1427   */\n      swap2\n      swap1\n      swap2\n      mstore\n        /* \"#utility.yul\":1400:1407   */\n      swap4\n        /* \"#utility.yul\":899:1458   */\n      swap3\n      pop\n      pop\n      pop\n      jump\t// out\n        /* \"#utility.yul\":1463:2019   */\n    tag_19:\n        /* \"#utility.yul\":1550:1556   */\n      0x00\n        /* \"#utility.yul\":1558:1564   */\n      0x00\n        /* \"#utility.yul\":1566:1572   */\n      0x00\n        /* \"#utility.yul\":1619:1621   */\n      0x60\n        /* \"#utility.yul\":1607:1616   */\n      dup5\n        /* \"#utility.yul\":1598:1605   */\n      dup7\n        /* \"#utility.yul\":1594:1617   */\n      sub\n        /* \"#utility.yul\":1590:1622   */\n      slt\n        /* \"#utility.yul\":1587:1639   */\n      iszero\n      tag_168\n      jumpi\n        /* \"#utility.yul\":1635:1636   */\n      0x00\n        /* \"#utility.yul\":1632:1633   */\n      0x00\n        /* \"#utility.yul\":1625:1637   */\n      revert\n        /* \"#utility.yul\":1587:1639   */\n    tag_168:\n        /* \"#utility.yul\":1675:1684   */\n      dup4\n        /* \"#utility.yul\":1662:1685   */\n      calldataload\n        /* \"#utility.yul\":1708:1726   */\n      0xffffffffffffffff\n        /* \"#utility.yul\":1700:1706   */\n      dup2\n        /* \"#utility.yul\":1697:1727   */\n      gt\n        /* \"#utility.yul\":1694:1744   */\n      iszero\n      tag_169\n      jumpi\n        /* \"#utility.yul\":1740:1741   */\n      0x00\n        /* \"#utility.yul\":1737:1738   */\n      0x00\n        /* \"#utility.yul\":1730:1742   */\n      revert\n        /* \"#utility.yul\":1694:1744   */\n    tag_169:\n        /* \"#utility.yul\":1763:1813   */\n      tag_170\n        /* \"#utility.yul\":1805:1812   */\n      dup7\n        /* \"#utility.yul\":1796:1802   */\n      dup3\n        /* \"#utility.yul\":1785:1794   */\n      dup8\n        /* \"#utility.yul\":1781:1803   */\n      add\n        /* \"#utility.yul\":1763:1813   */\n      tag_149\n      jump\t// in\n    tag_170:\n        /* \"#utility.yul\":1753:1813   */\n      swap7\n        /* \"#utility.yul\":1882:1884   */\n      0x20\n        /* \"#utility.yul\":1867:1885   */\n      dup7\n      add\n        /* \"#utility.yul\":1854:1886   */\n      calldataload\n      swap7\n      pop\n        /* \"#utility.yul\":1983:1985   */\n      0x40\n        /* \"#utility.yul\":1968:1986   */\n      swap1\n      swap6\n      add\n        /* \"#utility.yul\":1955:1987   */\n      calldataload\n      swap5\n        /* \"#utility.yul\":1463:2019   */\n      swap4\n      pop\n      pop\n      pop\n      pop\n      jump\t// out\n        /* \"#utility.yul\":2024:3027   */\n    tag_24:\n        /* \"#utility.yul\":2109:2115   */\n      0x00\n        /* \"#utility.yul\":2162:2164   */\n      0x20\n        /* \"#utility.yul\":2150:2159   */\n      dup3\n        /* \"#utility.yul\":2141:2148   */\n      dup5\n        /* \"#utility.yul\":2137:2160   */\n      sub\n        /* \"#utility.yul\":2133:2165   */\n      slt\n        /* \"#utility.yul\":2130:2182   */\n      iszero\n      tag_172\n      jumpi\n        /* \"#utility.yul\":2178:2179   */\n      0x00\n        /* \"#utility.yul\":2175:2176   */\n      0x00\n        /* \"#utility.yul\":2168:2180   */\n      revert\n        /* \"#utility.yul\":2130:2182   */\n    tag_172:\n        /* \"#utility.yul\":2218:2227   */\n      dup2\n        /* \"#utility.yul\":2205:2228   */\n      calldataload\n        /* \"#utility.yul\":2251:2269   */\n      0xffffffffffffffff\n        /* \"#utility.yul\":2243:2249   */\n      dup2\n        /* \"#utility.yul\":2240:2270   */\n      gt\n        /* \"#utility.yul\":2237:2287   */\n      iszero\n      tag_173\n      jumpi\n        /* \"#utility.yul\":2283:2284   */\n      0x00\n        /* \"#utility.yul\":2280:2281   */\n      0x00\n        /* \"#utility.yul\":2273:2285   */\n      revert\n        /* \"#utility.yul\":2237:2287   */\n    tag_173:\n        /* \"#utility.yul\":2306:2328   */\n      dup3\n      add\n        /* \"#utility.yul\":2362:2366   */\n      0x60\n        /* \"#utility.yul\":2344:2360   */\n      dup2\n      dup6\n      sub\n        /* \"#utility.yul\":2340:2367   */\n      slt\n        /* \"#utility.yul\":2337:2384   */\n      iszero\n      tag_174\n      jumpi\n        /* \"#utility.yul\":2380:2381   */\n      0x00\n        /* \"#utility.yul\":2377:2378   */\n      0x00\n        /* \"#utility.yul\":2370:2382   */\n      revert\n        /* \"#utility.yul\":2337:2384   */\n    tag_174:\n        /* \"#utility.yul\":2433:2435   */\n      0x40\n        /* \"#utility.yul\":2427:2436   */\n      mload\n        /* \"#utility.yul\":2475:2479   */\n      0x60\n        /* \"#utility.yul\":2463:2480   */\n      dup2\n      add\n        /* \"#utility.yul\":2510:2528   */\n      0xffffffffffffffff\n        /* \"#utility.yul\":2495:2529   */\n      dup2\n      gt\n        /* \"#utility.yul\":2531:2553   */\n      dup3\n      dup3\n      lt\n        /* \"#utility.yul\":2492:2554   */\n      or\n        /* \"#utility.yul\":2489:2577   */\n      iszero\n      tag_176\n      jumpi\n        /* \"#utility.yul\":2557:2575   */\n      tag_176\n      tag_147\n      jump\t// in\n    tag_176:\n        /* \"#utility.yul\":2593:2595   */\n      0x40\n        /* \"#utility.yul\":2586:2608   */\n      mstore\n        /* \"#utility.yul\":2633:2649   */\n      dup2\n      calldataload\n        /* \"#utility.yul\":2674:2692   */\n      0xffffffffffffffff\n        /* \"#utility.yul\":2661:2693   */\n      dup2\n      gt\n        /* \"#utility.yul\":2658:2710   */\n      iszero\n      tag_177\n      jumpi\n        /* \"#utility.yul\":2706:2707   */\n      0x00\n        /* \"#utility.yul\":2703:2704   */\n      0x00\n        /* \"#utility.yul\":2696:2708   */\n      revert\n        /* \"#utility.yul\":2658:2710   */\n    tag_177:\n        /* \"#utility.yul\":2734:2779   */\n      tag_178\n        /* \"#utility.yul\":2771:2778   */\n      dup7\n        /* \"#utility.yul\":2760:2768   */\n      dup3\n        /* \"#utility.yul\":2756:2758   */\n      dup6\n        /* \"#utility.yul\":2752:2769   */\n      add\n        /* \"#utility.yul\":2734:2779   */\n      tag_149\n      jump\t// in\n    tag_178:\n        /* \"#utility.yul\":2719:2780   */\n      dup3\n      mstore\n      pop\n        /* \"#utility.yul\":2842:2844   */\n      0x20\n        /* \"#utility.yul\":2834:2845   */\n      dup3\n      dup2\n      add\n        /* \"#utility.yul\":2821:2846   */\n      calldataload\n        /* \"#utility.yul\":2862:2877   */\n      swap1\n      dup3\n      add\n        /* \"#utility.yul\":2855:2885   */\n      mstore\n        /* \"#utility.yul\":2951:2953   */\n      0x40\n        /* \"#utility.yul\":2943:2954   */\n      swap2\n      dup3\n      add\n        /* \"#utility.yul\":2930:2955   */\n      calldataload\n        /* \"#utility.yul\":2971:2986   */\n      swap2\n      dup2\n      add\n        /* \"#utility.yul\":2964:2996   */\n      swap2\n      swap1\n      swap2\n      mstore\n        /* \"#utility.yul\":2726:2732   */\n      swap4\n        /* \"#utility.yul\":2024:3027   */\n      swap3\n      pop\n      pop\n      pop\n      jump\t// out\n        /* \"#utility.yul\":3032:3468   */\n    tag_29:\n        /* \"#utility.yul\":3110:3116   */\n      0x00\n        /* \"#utility.yul\":3118:3124   */\n      0x00\n        /* \"#utility.yul\":3171:3173   */\n      0x40\n        /* \"#utility.yul\":3159:3168   */\n      dup4\n        /* \"#utility.yul\":3150:3157   */\n      dup6\n        /* \"#utility.yul\":3146:3169   */\n      sub\n        /* \"#utility.yul\":3142:3174   */\n      slt\n        /* \"#utility.yul\":3139:3191   */\n      iszero\n      tag_180\n      jumpi\n        /* \"#utility.yul\":3187:3188   */\n      0x00\n        /* \"#utility.yul\":3184:3185   */\n      0x00\n        /* \"#utility.yul\":3177:3189   */\n      revert\n        /* \"#utility.yul\":3139:3191   */\n    tag_180:\n        /* \"#utility.yul\":3227:3236   */\n      dup3\n        /* \"#utility.yul\":3214:3237   */\n      calldataload\n        /* \"#utility.yul\":3260:3278   */\n      0xffffffffffffffff\n        /* \"#utility.yul\":3252:3258   */\n      dup2\n        /* \"#utility.yul\":3249:3279   */\n      gt\n        /* \"#utility.yul\":3246:3296   */\n      iszero\n      tag_181\n      jumpi\n        /* \"#utility.yul\":3292:3293   */\n      0x00\n        /* \"#utility.yul\":3289:3290   */\n      0x00\n        /* \"#utility.yul\":3282:3294   */\n      revert\n        /* \"#utility.yul\":3246:3296   */\n    tag_181:\n        /* \"#utility.yul\":3315:3365   */\n      tag_182\n        /* \"#utility.yul\":3357:3364   */\n      dup6\n        /* \"#utility.yul\":3348:3354   */\n      dup3\n        /* \"#utility.yul\":3337:3346   */\n      dup7\n        /* \"#utility.yul\":3333:3355   */\n      add\n        /* \"#utility.yul\":3315:3365   */\n      tag_149\n      jump\t// in\n    tag_182:\n        /* \"#utility.yul\":3305:3365   */\n      swap6\n        /* \"#utility.yul\":3434:3436   */\n      0x20\n        /* \"#utility.yul\":3419:3437   */\n      swap5\n      swap1\n      swap5\n      add\n        /* \"#utility.yul\":3406:3438   */\n      calldataload\n      swap5\n      pop\n      pop\n      pop\n      pop\n        /* \"#utility.yul\":3032:3468   */\n      jump\t// out\n        /* \"#utility.yul\":3473:3699   */\n    tag_34:\n        /* \"#utility.yul\":3532:3538   */\n      0x00\n        /* \"#utility.yul\":3585:3587   */\n      0x20\n        /* \"#utility.yul\":3573:3582   */\n      dup3\n        /* \"#utility.yul\":3564:3571   */\n      dup5\n        /* \"#utility.yul\":3560:3583   */\n      sub\n        /* \"#utility.yul\":3556:3588   */\n      slt\n        /* \"#utility.yul\":3553:3605   */\n      iszero\n      tag_184\n      jumpi\n        /* \"#utility.yul\":3601:3602   */\n      0x00\n        /* \"#utility.yul\":3598:3599   */\n      0x00\n        /* \"#utility.yul\":3591:3603   */\n      revert\n        /* \"#utility.yul\":3553:3605   */\n    tag_184:\n      pop\n        /* \"#utility.yul\":3646:3669   */\n      calldataload\n      swap2\n        /* \"#utility.yul\":3473:3699   */\n      swap1\n      pop\n      jump\t// out\n        /* \"#utility.yul\":3912:4142   */\n    tag_42:\n        /* \"#utility.yul\":3982:3988   */\n      0x00\n        /* \"#utility.yul\":4035:4037   */\n      0x20\n        /* \"#utility.yul\":4023:4032   */\n      dup3\n        /* \"#utility.yul\":4014:4021   */\n      dup5\n        /* \"#utility.yul\":4010:4033   */\n      sub\n        /* \"#utility.yul\":4006:4038   */\n      slt\n        /* \"#utility.yul\":4003:4055   */\n      iszero\n      tag_187\n      jumpi\n        /* \"#utility.yul\":4051:4052   */\n      0x00\n        /* \"#utility.yul\":4048:4049   */\n      0x00\n        /* \"#utility.yul\":4041:4053   */\n      revert\n        /* \"#utility.yul\":4003:4055   */\n    tag_187:\n      pop\n        /* \"#utility.yul\":4096:4112   */\n      mload\n      swap2\n        /* \"#utility.yul\":3912:4142   */\n      swap1\n      pop\n      jump\t// out\n        /* \"#utility.yul\":4497:4786   */\n    tag_150:\n        /* \"#utility.yul\":4539:4542   */\n      0x00\n        /* \"#utility.yul\":4577:4582   */\n      dup2\n        /* \"#utility.yul\":4571:4583   */\n      mload\n        /* \"#utility.yul\":4604:4610   */\n      dup1\n        /* \"#utility.yul\":4599:4602   */\n      dup5\n        /* \"#utility.yul\":4592:4611   */\n      mstore\n        /* \"#utility.yul\":4660:4666   */\n      dup1\n        /* \"#utility.yul\":4653:4657   */\n      0x20\n        /* \"#utility.yul\":4646:4651   */\n      dup5\n        /* \"#utility.yul\":4642:4658   */\n      add\n        /* \"#utility.yul\":4635:4639   */\n      0x20\n        /* \"#utility.yul\":4630:4633   */\n      dup7\n        /* \"#utility.yul\":4626:4640   */\n      add\n        /* \"#utility.yul\":4620:4667   */\n      mcopy\n        /* \"#utility.yul\":4712:4713   */\n      0x00\n        /* \"#utility.yul\":4705:4709   */\n      0x20\n        /* \"#utility.yul\":4696:4702   */\n      dup3\n        /* \"#utility.yul\":4691:4694   */\n      dup7\n        /* \"#utility.yul\":4687:4703   */\n      add\n        /* \"#utility.yul\":4683:4710   */\n      add\n        /* \"#utility.yul\":4676:4714   */\n      mstore\n        /* \"#utility.yul\":4775:4779   */\n      0x20\n        /* \"#utility.yul\":4768:4770   */\n      0x1f\n        /* \"#utility.yul\":4764:4771   */\n      not\n        /* \"#utility.yul\":4759:4761   */\n      0x1f\n        /* \"#utility.yul\":4751:4757   */\n      dup4\n        /* \"#utility.yul\":4747:4762   */\n      add\n        /* \"#utility.yul\":4743:4772   */\n      and\n        /* \"#utility.yul\":4738:4741   */\n      dup6\n        /* \"#utility.yul\":4734:4773   */\n      add\n        /* \"#utility.yul\":4730:4780   */\n      add\n        /* \"#utility.yul\":4723:4780   */\n      swap2\n      pop\n      pop\n        /* \"#utility.yul\":4497:4786   */\n      swap3\n      swap2\n      pop\n      pop\n      jump\t// out\n        /* \"#utility.yul\":4791:5282   */\n    tag_48:\n        /* \"#utility.yul\":4972:4974   */\n      0x20\n        /* \"#utility.yul\":4961:4970   */\n      dup2\n        /* \"#utility.yul\":4954:4975   */\n      mstore\n        /* \"#utility.yul\":4935:4939   */\n      0x00\n        /* \"#utility.yul\":5010:5016   */\n      dup3\n        /* \"#utility.yul\":5004:5017   */\n      mload\n        /* \"#utility.yul\":5053:5057   */\n      0x60\n        /* \"#utility.yul\":5048:5050   */\n      0x20\n        /* \"#utility.yul\":5037:5046   */\n      dup5\n        /* \"#utility.yul\":5033:5051   */\n      add\n        /* \"#utility.yul\":5026:5058   */\n      mstore\n        /* \"#utility.yul\":5081:5133   */\n      tag_191\n        /* \"#utility.yul\":5128:5131   */\n      0x80\n        /* \"#utility.yul\":5117:5126   */\n      dup5\n        /* \"#utility.yul\":5113:5132   */\n      add\n        /* \"#utility.yul\":5099:5111   */\n      dup3\n        /* \"#utility.yul\":5081:5133   */\n      tag_150\n      jump\t// in\n    tag_191:\n        /* \"#utility.yul\":5067:5133   */\n      swap1\n      pop\n        /* \"#utility.yul\":5187:5189   */\n      0x20\n        /* \"#utility.yul\":5179:5185   */\n      dup5\n        /* \"#utility.yul\":5175:5190   */\n      add\n        /* \"#utility.yul\":5169:5191   */\n      mload\n        /* \"#utility.yul\":5164:5166   */\n      0x40\n        /* \"#utility.yul\":5153:5162   */\n      dup5\n        /* \"#utility.yul\":5149:5167   */\n      add\n        /* \"#utility.yul\":5142:5192   */\n      mstore\n        /* \"#utility.yul\":5248:5250   */\n      0x40\n        /* \"#utility.yul\":5240:5246   */\n      dup5\n        /* \"#utility.yul\":5236:5251   */\n      add\n        /* \"#utility.yul\":5230:5252   */\n      mload\n        /* \"#utility.yul\":5223:5227   */\n      0x60\n        /* \"#utility.yul\":5212:5221   */\n      dup5\n        /* \"#utility.yul\":5208:5228   */\n      add\n        /* \"#utility.yul\":5201:5253   */\n      mstore\n        /* \"#utility.yul\":5270:5276   */\n      dup1\n        /* \"#utility.yul\":5262:5276   */\n      swap2\n      pop\n      pop\n        /* \"#utility.yul\":4791:5282   */\n      swap3\n      swap2\n      pop\n      pop\n      jump\t// out\n        /* \"#utility.yul\":5287:5414   */\n    tag_59:\n        /* \"#utility.yul\":5348:5358   */\n      0x4e487b71\n        /* \"#utility.yul\":5343:5346   */\n      0xe0\n        /* \"#utility.yul\":5339:5359   */\n      shl\n        /* \"#utility.yul\":5336:5337   */\n      0x00\n        /* \"#utility.yul\":5329:5360   */\n      mstore\n        /* \"#utility.yul\":5379:5383   */\n      0x32\n        /* \"#utility.yul\":5376:5377   */\n      0x04\n        /* \"#utility.yul\":5369:5384   */\n      mstore\n        /* \"#utility.yul\":5403:5407   */\n      0x24\n        /* \"#utility.yul\":5400:5401   */\n      0x00\n        /* \"#utility.yul\":5393:5408   */\n      revert\n        /* \"#utility.yul\":5419:5546   */\n    tag_151:\n        /* \"#utility.yul\":5480:5490   */\n      0x4e487b71\n        /* \"#utility.yul\":5475:5478   */\n      0xe0\n        /* \"#utility.yul\":5471:5491   */\n      shl\n        /* \"#utility.yul\":5468:5469   */\n      0x00\n        /* \"#utility.yul\":5461:5492   */\n      mstore\n        /* \"#utility.yul\":5511:5515   */\n      0x11\n        /* \"#utility.yul\":5508:5509   */\n      0x04\n        /* \"#utility.yul\":5501:5516   */\n      mstore\n        /* \"#utility.yul\":5535:5539   */\n      0x24\n        /* \"#utility.yul\":5532:5533   */\n      0x00\n        /* \"#utility.yul\":5525:5540   */\n      revert\n        /* \"#utility.yul\":5551:5676   */\n    tag_65:\n        /* \"#utility.yul\":5616:5625   */\n      dup1\n      dup3\n      add\n        /* \"#utility.yul\":5637:5647   */\n      dup1\n      dup3\n      gt\n        /* \"#utility.yul\":5634:5670   */\n      iszero\n      tag_41\n      jumpi\n        /* \"#utility.yul\":5650:5668   */\n      tag_41\n      tag_151\n      jump\t// in\n        /* \"#utility.yul\":5681:6591   */\n    tag_67:\n        /* \"#utility.yul\":5912:5916   */\n      0x00\n        /* \"#utility.yul\":5960:5963   */\n      0x80\n        /* \"#utility.yul\":5949:5958   */\n      dup3\n        /* \"#utility.yul\":5945:5964   */\n      add\n        /* \"#utility.yul\":5991:5997   */\n      dup7\n        /* \"#utility.yul\":5980:5989   */\n      dup4\n        /* \"#utility.yul\":5973:5998   */\n      mstore\n        /* \"#utility.yul\":6034:6037   */\n      0x80\n        /* \"#utility.yul\":6029:6031   */\n      0x20\n        /* \"#utility.yul\":6018:6027   */\n      dup5\n        /* \"#utility.yul\":6014:6032   */\n      add\n        /* \"#utility.yul\":6007:6038   */\n      mstore\n        /* \"#utility.yul\":6058:6064   */\n      dup1\n        /* \"#utility.yul\":6093:6099   */\n      dup7\n        /* \"#utility.yul\":6087:6100   */\n      sload\n        /* \"#utility.yul\":6124:6130   */\n      dup1\n        /* \"#utility.yul\":6116:6122   */\n      dup4\n        /* \"#utility.yul\":6109:6131   */\n      mstore\n        /* \"#utility.yul\":6162:6165   */\n      0xa0\n        /* \"#utility.yul\":6151:6160   */\n      dup6\n        /* \"#utility.yul\":6147:6166   */\n      add\n        /* \"#utility.yul\":6140:6166   */\n      swap2\n      pop\n        /* \"#utility.yul\":6185:6191   */\n      dup8\n        /* \"#utility.yul\":6182:6183   */\n      0x00\n        /* \"#utility.yul\":6175:6192   */\n      mstore\n        /* \"#utility.yul\":6228:6230   */\n      0x20\n        /* \"#utility.yul\":6225:6226   */\n      0x00\n        /* \"#utility.yul\":6215:6231   */\n      keccak256\n        /* \"#utility.yul\":6201:6231   */\n      swap3\n      pop\n        /* \"#utility.yul\":6249:6250   */\n      0x00\n        /* \"#utility.yul\":6259:6453   */\n    tag_198:\n        /* \"#utility.yul\":6273:6279   */\n      dup2\n        /* \"#utility.yul\":6270:6271   */\n      dup2\n        /* \"#utility.yul\":6267:6280   */\n      lt\n        /* \"#utility.yul\":6259:6453   */\n      iszero\n      tag_200\n      jumpi\n        /* \"#utility.yul\":6338:6351   */\n      dup4\n      sload\n      sub(shl(0xa0, 0x01), 0x01)\n        /* \"#utility.yul\":6334:6373   */\n      and\n        /* \"#utility.yul\":6322:6374   */\n      dup4\n      mstore\n        /* \"#utility.yul\":6370:6371   */\n      0x01\n        /* \"#utility.yul\":6429:6443   */\n      swap4\n      dup5\n      add\n      swap4\n        /* \"#utility.yul\":6403:6405   */\n      0x20\n        /* \"#utility.yul\":6394:6406   */\n      swap1\n      swap4\n      add\n      swap3\n        /* \"#utility.yul\":6288:6297   */\n      add\n        /* \"#utility.yul\":6259:6453   */\n      jump(tag_198)\n    tag_200:\n      pop\n      pop\n      sub(shl(0xa0, 0x01), 0x01)\n        /* \"#utility.yul\":6509:6541   */\n      swap6\n      swap1\n      swap6\n      and\n        /* \"#utility.yul\":6504:6506   */\n      0x40\n        /* \"#utility.yul\":6489:6507   */\n      dup5\n      add\n        /* \"#utility.yul\":6482:6542   */\n      mstore\n      pop\n      pop\n        /* \"#utility.yul\":6573:6575   */\n      0x60\n        /* \"#utility.yul\":6558:6576   */\n      add\n        /* \"#utility.yul\":6551:6585   */\n      mstore\n        /* \"#utility.yul\":6470:6473   */\n      swap3\n        /* \"#utility.yul\":5681:6591   */\n      swap2\n      pop\n      pop\n      jump\t// out\n        /* \"#utility.yul\":6596:7576   */\n    tag_71:\n        /* \"#utility.yul\":6691:6697   */\n      0x00\n        /* \"#utility.yul\":6744:6746   */\n      0x20\n        /* \"#utility.yul\":6732:6741   */\n      dup3\n        /* \"#utility.yul\":6723:6730   */\n      dup5\n        /* \"#utility.yul\":6719:6742   */\n      sub\n        /* \"#utility.yul\":6715:6747   */\n      slt\n        /* \"#utility.yul\":6712:6764   */\n      iszero\n      tag_202\n      jumpi\n        /* \"#utility.yul\":6760:6761   */\n      0x00\n        /* \"#utility.yul\":6757:6758   */\n      0x00\n        /* \"#utility.yul\":6750:6762   */\n      revert\n        /* \"#utility.yul\":6712:6764   */\n    tag_202:\n        /* \"#utility.yul\":6793:6802   */\n      dup2\n        /* \"#utility.yul\":6787:6803   */\n      mload\n        /* \"#utility.yul\":6826:6844   */\n      0xffffffffffffffff\n        /* \"#utility.yul\":6818:6824   */\n      dup2\n        /* \"#utility.yul\":6815:6845   */\n      gt\n        /* \"#utility.yul\":6812:6862   */\n      iszero\n      tag_203\n      jumpi\n        /* \"#utility.yul\":6858:6859   */\n      0x00\n        /* \"#utility.yul\":6855:6856   */\n      0x00\n        /* \"#utility.yul\":6848:6860   */\n      revert\n        /* \"#utility.yul\":6812:6862   */\n    tag_203:\n        /* \"#utility.yul\":6881:6903   */\n      dup3\n      add\n        /* \"#utility.yul\":6934:6938   */\n      0x1f\n        /* \"#utility.yul\":6926:6939   */\n      dup2\n      add\n        /* \"#utility.yul\":6922:6949   */\n      dup5\n      sgt\n        /* \"#utility.yul\":6912:6967   */\n      tag_204\n      jumpi\n        /* \"#utility.yul\":6963:6964   */\n      0x00\n        /* \"#utility.yul\":6960:6961   */\n      0x00\n        /* \"#utility.yul\":6953:6965   */\n      revert\n        /* \"#utility.yul\":6912:6967   */\n    tag_204:\n        /* \"#utility.yul\":6996:6998   */\n      dup1\n        /* \"#utility.yul\":6990:6999   */\n      mload\n        /* \"#utility.yul\":7022:7040   */\n      0xffffffffffffffff\n        /* \"#utility.yul\":7014:7020   */\n      dup2\n        /* \"#utility.yul\":7011:7041   */\n      gt\n        /* \"#utility.yul\":7008:7064   */\n      iszero\n      tag_206\n      jumpi\n        /* \"#utility.yul\":7044:7062   */\n      tag_206\n      tag_147\n      jump\t// in\n    tag_206:\n        /* \"#utility.yul\":7090:7096   */\n      dup1\n        /* \"#utility.yul\":7087:7088   */\n      0x05\n        /* \"#utility.yul\":7083:7097   */\n      shl\n        /* \"#utility.yul\":7117:7145   */\n      tag_207\n        /* \"#utility.yul\":7141:7143   */\n      0x20\n        /* \"#utility.yul\":7137:7139   */\n      dup3\n        /* \"#utility.yul\":7133:7144   */\n      add\n        /* \"#utility.yul\":7117:7145   */\n      tag_148\n      jump\t// in\n    tag_207:\n        /* \"#utility.yul\":7179:7198   */\n      swap2\n      dup3\n      mstore\n        /* \"#utility.yul\":7223:7225   */\n      0x20\n        /* \"#utility.yul\":7253:7264   */\n      dup2\n      dup5\n      add\n        /* \"#utility.yul\":7249:7269   */\n      dup2\n      add\n      swap3\n        /* \"#utility.yul\":7214:7226   */\n      swap1\n      dup2\n      add\n      swap1\n        /* \"#utility.yul\":7281:7300   */\n      dup8\n      dup5\n      gt\n        /* \"#utility.yul\":7278:7317   */\n      iszero\n      tag_208\n      jumpi\n        /* \"#utility.yul\":7313:7314   */\n      0x00\n        /* \"#utility.yul\":7310:7311   */\n      0x00\n        /* \"#utility.yul\":7303:7315   */\n      revert\n        /* \"#utility.yul\":7278:7317   */\n    tag_208:\n        /* \"#utility.yul\":7345:7347   */\n      0x20\n        /* \"#utility.yul\":7341:7343   */\n      dup6\n        /* \"#utility.yul\":7337:7348   */\n      add\n        /* \"#utility.yul\":7326:7348   */\n      swap5\n      pop\n        /* \"#utility.yul\":7357:7546   */\n    tag_209:\n        /* \"#utility.yul\":7373:7379   */\n      dup4\n        /* \"#utility.yul\":7368:7371   */\n      dup6\n        /* \"#utility.yul\":7365:7380   */\n      lt\n        /* \"#utility.yul\":7357:7546   */\n      iszero\n      tag_211\n      jumpi\n        /* \"#utility.yul\":7463:7473   */\n      dup5\n      mload\n        /* \"#utility.yul\":7486:7504   */\n      dup1\n      dup4\n      mstore\n        /* \"#utility.yul\":7533:7535   */\n      0x20\n        /* \"#utility.yul\":7390:7402   */\n      swap6\n      dup7\n      add\n      swap6\n        /* \"#utility.yul\":7463:7473   */\n      swap1\n      swap4\n      pop\n        /* \"#utility.yul\":7524:7536   */\n      swap1\n      swap2\n      add\n      swap1\n        /* \"#utility.yul\":7357:7546   */\n      jump(tag_209)\n    tag_211:\n        /* \"#utility.yul\":7565:7570   */\n      swap8\n        /* \"#utility.yul\":6596:7576   */\n      swap7\n      pop\n      pop\n      pop\n      pop\n      pop\n      pop\n      pop\n      jump\t// out\n        /* \"#utility.yul\":7928:8056   */\n    tag_77:\n        /* \"#utility.yul\":7995:8004   */\n      dup2\n      dup2\n      sub\n        /* \"#utility.yul\":8016:8027   */\n      dup2\n      dup2\n      gt\n        /* \"#utility.yul\":8013:8050   */\n      iszero\n      tag_41\n      jumpi\n        /* \"#utility.yul\":8030:8048   */\n      tag_41\n      tag_151\n      jump\t// in\n        /* \"#utility.yul\":8408:8843   */\n    tag_84:\n        /* \"#utility.yul\":8641:8644   */\n      0x80\n        /* \"#utility.yul\":8630:8639   */\n      dup2\n        /* \"#utility.yul\":8623:8645   */\n      mstore\n        /* \"#utility.yul\":8604:8608   */\n      0x00\n        /* \"#utility.yul\":8662:8708   */\n      tag_218\n        /* \"#utility.yul\":8703:8706   */\n      0x80\n        /* \"#utility.yul\":8692:8701   */\n      dup4\n        /* \"#utility.yul\":8688:8707   */\n      add\n        /* \"#utility.yul\":8680:8686   */\n      dup8\n        /* \"#utility.yul\":8662:8708   */\n      tag_150\n      jump\t// in\n    tag_218:\n        /* \"#utility.yul\":8739:8741   */\n      0x20\n        /* \"#utility.yul\":8724:8742   */\n      dup4\n      add\n        /* \"#utility.yul\":8717:8751   */\n      swap6\n      swap1\n      swap6\n      mstore\n      pop\n        /* \"#utility.yul\":8782:8784   */\n      0x40\n        /* \"#utility.yul\":8767:8785   */\n      dup2\n      add\n        /* \"#utility.yul\":8760:8794   */\n      swap3\n      swap1\n      swap3\n      mstore\n        /* \"#utility.yul\":8825:8827   */\n      0x60\n        /* \"#utility.yul\":8810:8828   */\n      swap1\n      swap2\n      add\n        /* \"#utility.yul\":8803:8837   */\n      mstore\n        /* \"#utility.yul\":8654:8708   */\n      swap2\n        /* \"#utility.yul\":8408:8843   */\n      swap1\n      pop\n      jump\t// out\n        /* \"#utility.yul\":9482:9759   */\n    tag_96:\n        /* \"#utility.yul\":9549:9555   */\n      0x00\n        /* \"#utility.yul\":9602:9604   */\n      0x20\n        /* \"#utility.yul\":9590:9599   */\n      dup3\n        /* \"#utility.yul\":9581:9588   */\n      dup5\n        /* \"#utility.yul\":9577:9600   */\n      sub\n        /* \"#utility.yul\":9573:9605   */\n      slt\n        /* \"#utility.yul\":9570:9622   */\n      iszero\n      tag_222\n      jumpi\n        /* \"#utility.yul\":9618:9619   */\n      0x00\n        /* \"#utility.yul\":9615:9616   */\n      0x00\n        /* \"#utility.yul\":9608:9620   */\n      revert\n        /* \"#utility.yul\":9570:9622   */\n    tag_222:\n        /* \"#utility.yul\":9650:9659   */\n      dup2\n        /* \"#utility.yul\":9644:9660   */\n      mload\n        /* \"#utility.yul\":9703:9708   */\n      dup1\n        /* \"#utility.yul\":9696:9709   */\n      iszero\n        /* \"#utility.yul\":9689:9710   */\n      iszero\n        /* \"#utility.yul\":9682:9687   */\n      dup2\n        /* \"#utility.yul\":9679:9711   */\n      eq\n        /* \"#utility.yul\":9669:9729   */\n      tag_145\n      jumpi\n        /* \"#utility.yul\":9725:9726   */\n      0x00\n        /* \"#utility.yul\":9722:9723   */\n      0x00\n        /* \"#utility.yul\":9715:9727   */\n      revert\n        /* \"#utility.yul\":10113:10411   */\n    tag_108:\n      sub(shl(0xa0, 0x01), 0x01)\n        /* \"#utility.yul\":10186:10213   */\n      dup2\n      dup2\n      and\n        /* \"#utility.yul\":10233:10260   */\n      dup4\n      dup3\n      and\n        /* \"#utility.yul\":10284:10297   */\n      dup2\n      dup2\n      mul\n        /* \"#utility.yul\":10280:10319   */\n      swap1\n      swap3\n      and\n      swap2\n        /* \"#utility.yul\":10362:10379   */\n      dup2\n      dup4\n      div\n        /* \"#utility.yul\":10354:10380   */\n      dup2\n      eq\n        /* \"#utility.yul\":10341:10352   */\n      dup3\n      iszero\n        /* \"#utility.yul\":10338:10381   */\n      or\n        /* \"#utility.yul\":10328:10405   */\n      tag_227\n      jumpi\n        /* \"#utility.yul\":10385:10403   */\n      tag_227\n      tag_151\n      jump\t// in\n    tag_227:\n        /* \"#utility.yul\":10328:10405   */\n      pop\n      pop\n        /* \"#utility.yul\":10113:10411   */\n      swap3\n      swap2\n      pop\n      pop\n      jump\t// out\n        /* \"#utility.yul\":10416:10614   */\n    tag_117:\n      sub(shl(0xa0, 0x01), 0x01)\n        /* \"#utility.yul\":10516:10543   */\n      dup3\n      dup2\n      and\n        /* \"#utility.yul\":10487:10514   */\n      dup3\n      dup3\n      and\n        /* \"#utility.yul\":10483:10544   */\n      sub\n      swap1\n        /* \"#utility.yul\":10556:10585   */\n      dup2\n      gt\n        /* \"#utility.yul\":10553:10608   */\n      iszero\n      tag_41\n      jumpi\n        /* \"#utility.yul\":10588:10606   */\n      tag_41\n      tag_151\n      jump\t// in\n        /* \"#utility.yul\":10619:10814   */\n    tag_139:\n      sub(shl(0xa0, 0x01), 0x01)\n        /* \"#utility.yul\":10688:10715   */\n      dup2\n      dup2\n      and\n        /* \"#utility.yul\":10717:10744   */\n      dup4\n      dup3\n      and\n        /* \"#utility.yul\":10684:10745   */\n      add\n      swap1\n        /* \"#utility.yul\":10757:10785   */\n      dup2\n      gt\n        /* \"#utility.yul\":10754:10808   */\n      iszero\n      tag_41\n      jumpi\n        /* \"#utility.yul\":10788:10806   */\n      tag_41\n      tag_151\n      jump\t// in\n        /* \"#utility.yul\":10819:10987   */\n    tag_144:\n        /* \"#utility.yul\":10892:10901   */\n      dup1\n      dup3\n      mul\n        /* \"#utility.yul\":10923:10932   */\n      dup2\n      iszero\n        /* \"#utility.yul\":10940:10955   */\n      dup3\n      dup3\n      div\n        /* \"#utility.yul\":10934:10956   */\n      dup5\n      eq\n        /* \"#utility.yul\":10920:10957   */\n      or\n        /* \"#utility.yul\":10910:10981   */\n      tag_41\n      jumpi\n        /* \"#utility.yul\":10961:10979   */\n      tag_41\n      tag_151\n      jump\t// in\n        /* \"#utility.yul\":10992:11209   */\n    tag_146:\n        /* \"#utility.yul\":11032:11033   */\n      0x00\n        /* \"#utility.yul\":11058:11059   */\n      dup3\n        /* \"#utility.yul\":11048:11180   */\n      tag_238\n      jumpi\n        /* \"#utility.yul\":11102:11112   */\n      0x4e487b71\n        /* \"#utility.yul\":11097:11100   */\n      0xe0\n        /* \"#utility.yul\":11093:11113   */\n      shl\n        /* \"#utility.yul\":11090:11091   */\n      0x00\n        /* \"#utility.yul\":11083:11114   */\n      mstore\n        /* \"#utility.yul\":11137:11141   */\n      0x12\n        /* \"#utility.yul\":11134:11135   */\n      0x04\n        /* \"#utility.yul\":11127:11142   */\n      mstore\n        /* \"#utility.yul\":11165:11169   */\n      0x24\n        /* \"#utility.yul\":11162:11163   */\n      0x00\n        /* \"#utility.yul\":11155:11170   */\n      revert\n        /* \"#utility.yul\":11048:11180   */\n    tag_238:\n      pop\n        /* \"#utility.yul\":11194:11203   */\n      div\n      swap1\n        /* \"#utility.yul\":10992:11209   */\n      jump\t// out\n    stop\n    data_4f4047589ec29e8168685922cf611e84c1fb656139fe1e834ca4c5ab55dfa3a0 307843303261614133396232323346453844304130653543344632376541443930383343373536436332\n\n    auxdata: 0xa2646970667358221220949eaf2e6f161245f77868baa9fdbf41bd9d9f7434f41ff57e8e2ed8fd4e650964736f6c634300081b0033\n}\n",
				"bytecode": {
					"linkReferences": {},
					"object": "60a0604052348015600e575f5ffd5b50737a250d5630b4cf539739df2c5dacb4c659f2488d608052608051610d2261003f5f395f6102dd0152610d225ff3fe60806040526004361061004c575f3560e01c80633aecd0e3146100575780637cdb769514610088578063abec6e591461009d578063c97a413a146100bc578063f14210a6146100db575f5ffd5b3661005357005b5f5ffd5b348015610062575f5ffd5b506100766100713660046107d0565b6100fa565b60405190815260200160405180910390f35b61009b6100963660046108a7565b610168565b005b3480156100a8575f5ffd5b5061009b6100b73660046108f1565b610224565b3480156100c7575f5ffd5b5061009b6100d6366004610991565b610479565b3480156100e6575f5ffd5b5061009b6100f53660046109d3565b610551565b6040516370a0823160e01b81523060048201525f906001600160a01b038316906370a0823190602401602060405180830381865afa15801561013e573d5f5f3e3d5ffd5b505050506040513d601f19601f8201168201806040525081019061016291906109ea565b92915050565b813410156101b55760405162461bcd60e51b8152602060048201526015602482015274125b9cdd59999a58da595b9d08115512081cd95b9d605a1b60448201526064015b60405180910390fd5b6040805160608101825284815260208101849052808201839052905163abec6e5960e01b8152309063abec6e59906101f1908490600401610a2f565b5f604051808303815f87803b158015610208575f5ffd5b505af115801561021a573d5f5f3e3d5ffd5b5050505050505050565b5f610231825f01516105c6565b90505f61023d826100fa565b90506102606040518060600160405280602a8152602001610cc3602a91396105c6565b5f5f8154811061027257610272610a6a565b905f5260205f20015f6101000a8154816001600160a01b0302191690836001600160a01b03160217905550815f6001815481106102b1576102b1610a6a565b5f91825260208083209190910180546001600160a01b0319166001600160a01b039485161790558501517f000000000000000000000000000000000000000000000000000000000000000090921691637ff36ab59180306103144261012c610a92565b6040518663ffffffff1660e01b81526004016103339493929190610aa5565b5f6040518083038185885af115801561034e573d5f5f3e3d5ffd5b50505050506040513d5f823e601f3d908101601f191682016040526103769190810190610b11565b505f610381836100fa565b90508181116103c75760405162461bcd60e51b8152602060048201526012602482015271139bc81d1bdad95b9cc81858dc5d5a5c995960721b60448201526064016101ac565b5f6103d28383610bbd565b90505f6103e38660200151836107b2565b9050856040015181111561042e5760405162461bcd60e51b815260206004820152601260248201527145786365737369766520736c69707061676560701b60448201526064016101ac565b855160208701516040517f0b672a605ad735ddcce1873a1b0630c2e19c5a273a756537f6296344cdd00c249261046992909186908690610bd0565b60405180910390a1505050505050565b5f610483836105c6565b90508161048f826100fa565b10156104dd5760405162461bcd60e51b815260206004820152601a60248201527f496e73756666696369656e7420746f6b656e2062616c616e636500000000000060448201526064016101ac565b60405163a9059cbb60e01b8152336004820152602481018390526001600160a01b0382169063a9059cbb906044016020604051808303815f875af1158015610527573d5f5f3e3d5ffd5b505050506040513d601f19601f8201168201806040525081019061054b9190610bfe565b50505050565b804710156105985760405162461bcd60e51b8152602060048201526014602482015273496e73756666696369656e742062616c616e636560601b60448201526064016101ac565b604051339082156108fc029083905f818181858888f193505050501580156105c2573d5f5f3e3d5ffd5b5050565b5f8181808060025b602a8110156107a7576105e361010085610c1d565b93508481815181106105f7576105f7610a6a565b016020015160f81c92508461060d826001610a92565b8151811061061d5761061d610a6a565b016020015160f81c915060616001600160a01b0384161080159061064b57506066836001600160a01b031611155b156106625761065b605784610c4e565b92506106cd565b6041836001600160a01b03161015801561068657506046836001600160a01b031611155b156106965761065b603784610c4e565b6030836001600160a01b0316101580156106ba57506039836001600160a01b031611155b156106cd576106ca603084610c4e565b92505b6061826001600160a01b0316101580156106f157506066826001600160a01b031611155b1561070857610701605783610c4e565b9150610773565b6041826001600160a01b03161015801561072c57506046826001600160a01b031611155b1561073c57610701603783610c4e565b6030826001600160a01b03161015801561076057506039826001600160a01b031611155b1561077357610770603083610c4e565b91505b8161077f846010610c1d565b6107899190610c6d565b6107939085610c6d565b93506107a0600282610a92565b90506105ce565b509195945050505050565b5f816107bf846064610c8c565b6107c99190610ca3565b9392505050565b5f602082840312156107e0575f5ffd5b81356001600160a01b03811681146107c9575f5ffd5b634e487b7160e01b5f52604160045260245ffd5b604051601f8201601f1916810167ffffffffffffffff81118282101715610833576108336107f6565b604052919050565b5f82601f83011261084a575f5ffd5b813567ffffffffffffffff811115610864576108646107f6565b610877601f8201601f191660200161080a565b81815284602083860101111561088b575f5ffd5b816020850160208301375f918101602001919091529392505050565b5f5f5f606084860312156108b9575f5ffd5b833567ffffffffffffffff8111156108cf575f5ffd5b6108db8682870161083b565b9660208601359650604090950135949350505050565b5f60208284031215610901575f5ffd5b813567ffffffffffffffff811115610917575f5ffd5b820160608185031215610928575f5ffd5b6040516060810167ffffffffffffffff8111828210171561094b5761094b6107f6565b604052813567ffffffffffffffff811115610964575f5ffd5b6109708682850161083b565b82525060208281013590820152604091820135918101919091529392505050565b5f5f604083850312156109a2575f5ffd5b823567ffffffffffffffff8111156109b8575f5ffd5b6109c48582860161083b565b95602094909401359450505050565b5f602082840312156109e3575f5ffd5b5035919050565b5f602082840312156109fa575f5ffd5b5051919050565b5f81518084528060208401602086015e5f602082860101526020601f19601f83011685010191505092915050565b602081525f825160606020840152610a4a6080840182610a01565b905060208401516040840152604084015160608401528091505092915050565b634e487b7160e01b5f52603260045260245ffd5b634e487b7160e01b5f52601160045260245ffd5b8082018082111561016257610162610a7e565b5f608082018683526080602084015280865480835260a085019150875f5260205f2092505f5b81811015610af25783546001600160a01b0316835260019384019360209093019201610acb565b50506001600160a01b0395909516604084015250506060015292915050565b5f60208284031215610b21575f5ffd5b815167ffffffffffffffff811115610b37575f5ffd5b8201601f81018413610b47575f5ffd5b805167ffffffffffffffff811115610b6157610b616107f6565b8060051b610b716020820161080a565b91825260208184018101929081019087841115610b8c575f5ffd5b6020850194505b83851015610bb257845180835260209586019590935090910190610b93565b979650505050505050565b8181038181111561016257610162610a7e565b608081525f610be26080830187610a01565b6020830195909552506040810192909252606090910152919050565b5f60208284031215610c0e575f5ffd5b815180151581146107c9575f5ffd5b6001600160a01b03818116838216818102909216918183048114821517610c4657610c46610a7e565b505092915050565b6001600160a01b03828116828216039081111561016257610162610a7e565b6001600160a01b03818116838216019081111561016257610162610a7e565b808202811582820484141761016257610162610a7e565b5f82610cbd57634e487b7160e01b5f52601260045260245ffd5b50049056fe307843303261614133396232323346453844304130653543344632376541443930383343373536436332a2646970667358221220949eaf2e6f161245f77868baa9fdbf41bd9d9f7434f41ff57e8e2ed8fd4e650964736f6c634300081b0033",
					"opcodes": "PUSH1 0xA0 PUSH1 0x40 MSTORE CALLVALUE DUP1 ISZERO PUSH1 0xE JUMPI PUSH0 PUSH0 REVERT JUMPDEST POP PUSH20 0x7A250D5630B4CF539739DF2C5DACB4C659F2488D PUSH1 0x80 MSTORE PUSH1 0x80 MLOAD PUSH2 0xD22 PUSH2 0x3F PUSH0 CODECOPY PUSH0 PUSH2 0x2DD ADD MSTORE PUSH2 0xD22 PUSH0 RETURN INVALID PUSH1 0x80 PUSH1 0x40 MSTORE PUSH1 0x4 CALLDATASIZE LT PUSH2 0x4C JUMPI PUSH0 CALLDATALOAD PUSH1 0xE0 SHR DUP1 PUSH4 0x3AECD0E3 EQ PUSH2 0x57 JUMPI DUP1 PUSH4 0x7CDB7695 EQ PUSH2 0x88 JUMPI DUP1 PUSH4 0xABEC6E59 EQ PUSH2 0x9D JUMPI DUP1 PUSH4 0xC97A413A EQ PUSH2 0xBC JUMPI DUP1 PUSH4 0xF14210A6 EQ PUSH2 0xDB JUMPI PUSH0 PUSH0 REVERT JUMPDEST CALLDATASIZE PUSH2 0x53 JUMPI STOP JUMPDEST PUSH0 PUSH0 REVERT JUMPDEST CALLVALUE DUP1 ISZERO PUSH2 0x62 JUMPI PUSH0 PUSH0 REVERT JUMPDEST POP PUSH2 0x76 PUSH2 0x71 CALLDATASIZE PUSH1 0x4 PUSH2 0x7D0 JUMP JUMPDEST PUSH2 0xFA JUMP JUMPDEST PUSH1 0x40 MLOAD SWAP1 DUP2 MSTORE PUSH1 0x20 ADD PUSH1 0x40 MLOAD DUP1 SWAP2 SUB SWAP1 RETURN JUMPDEST PUSH2 0x9B PUSH2 0x96 CALLDATASIZE PUSH1 0x4 PUSH2 0x8A7 JUMP JUMPDEST PUSH2 0x168 JUMP JUMPDEST STOP JUMPDEST CALLVALUE DUP1 ISZERO PUSH2 0xA8 JUMPI PUSH0 PUSH0 REVERT JUMPDEST POP PUSH2 0x9B PUSH2 0xB7 CALLDATASIZE PUSH1 0x4 PUSH2 0x8F1 JUMP JUMPDEST PUSH2 0x224 JUMP JUMPDEST CALLVALUE DUP1 ISZERO PUSH2 0xC7 JUMPI PUSH0 PUSH0 REVERT JUMPDEST POP PUSH2 0x9B PUSH2 0xD6 CALLDATASIZE PUSH1 0x4 PUSH2 0x991 JUMP JUMPDEST PUSH2 0x479 JUMP JUMPDEST CALLVALUE DUP1 ISZERO PUSH2 0xE6 JUMPI PUSH0 PUSH0 REVERT JUMPDEST POP PUSH2 0x9B PUSH2 0xF5 CALLDATASIZE PUSH1 0x4 PUSH2 0x9D3 JUMP JUMPDEST PUSH2 0x551 JUMP JUMPDEST PUSH1 0x40 MLOAD PUSH4 0x70A08231 PUSH1 0xE0 SHL DUP2 MSTORE ADDRESS PUSH1 0x4 DUP3 ADD MSTORE PUSH0 SWAP1 PUSH1 0x1 PUSH1 0x1 PUSH1 0xA0 SHL SUB DUP4 AND SWAP1 PUSH4 0x70A08231 SWAP1 PUSH1 0x24 ADD PUSH1 0x20 PUSH1 0x40 MLOAD DUP1 DUP4 SUB DUP2 DUP7 GAS STATICCALL ISZERO DUP1 ISZERO PUSH2 0x13E JUMPI RETURNDATASIZE PUSH0 PUSH0 RETURNDATACOPY RETURNDATASIZE PUSH0 REVERT JUMPDEST POP POP POP POP PUSH1 0x40 MLOAD RETURNDATASIZE PUSH1 0x1F NOT PUSH1 0x1F DUP3 ADD AND DUP3 ADD DUP1 PUSH1 0x40 MSTORE POP DUP2 ADD SWAP1 PUSH2 0x162 SWAP2 SWAP1 PUSH2 0x9EA JUMP JUMPDEST SWAP3 SWAP2 POP POP JUMP JUMPDEST DUP2 CALLVALUE LT ISZERO PUSH2 0x1B5 JUMPI PUSH1 0x40 MLOAD PUSH3 0x461BCD PUSH1 0xE5 SHL DUP2 MSTORE PUSH1 0x20 PUSH1 0x4 DUP3 ADD MSTORE PUSH1 0x15 PUSH1 0x24 DUP3 ADD MSTORE PUSH21 0x125B9CDD59999A58DA595B9D08115512081CD95B9D PUSH1 0x5A SHL PUSH1 0x44 DUP3 ADD MSTORE PUSH1 0x64 ADD JUMPDEST PUSH1 0x40 MLOAD DUP1 SWAP2 SUB SWAP1 REVERT JUMPDEST PUSH1 0x40 DUP1 MLOAD PUSH1 0x60 DUP2 ADD DUP3 MSTORE DUP5 DUP2 MSTORE PUSH1 0x20 DUP2 ADD DUP5 SWAP1 MSTORE DUP1 DUP3 ADD DUP4 SWAP1 MSTORE SWAP1 MLOAD PUSH4 0xABEC6E59 PUSH1 0xE0 SHL DUP2 MSTORE ADDRESS SWAP1 PUSH4 0xABEC6E59 SWAP1 PUSH2 0x1F1 SWAP1 DUP5 SWAP1 PUSH1 0x4 ADD PUSH2 0xA2F JUMP JUMPDEST PUSH0 PUSH1 0x40 MLOAD DUP1 DUP4 SUB DUP2 PUSH0 DUP8 DUP1 EXTCODESIZE ISZERO DUP1 ISZERO PUSH2 0x208 JUMPI PUSH0 PUSH0 REVERT JUMPDEST POP GAS CALL ISZERO DUP1 ISZERO PUSH2 0x21A JUMPI RETURNDATASIZE PUSH0 PUSH0 RETURNDATACOPY RETURNDATASIZE PUSH0 REVERT JUMPDEST POP POP POP POP POP POP POP POP JUMP JUMPDEST PUSH0 PUSH2 0x231 DUP3 PUSH0 ADD MLOAD PUSH2 0x5C6 JUMP JUMPDEST SWAP1 POP PUSH0 PUSH2 0x23D DUP3 PUSH2 0xFA JUMP JUMPDEST SWAP1 POP PUSH2 0x260 PUSH1 0x40 MLOAD DUP1 PUSH1 0x60 ADD PUSH1 0x40 MSTORE DUP1 PUSH1 0x2A DUP2 MSTORE PUSH1 0x20 ADD PUSH2 0xCC3 PUSH1 0x2A SWAP2 CODECOPY PUSH2 0x5C6 JUMP JUMPDEST PUSH0 PUSH0 DUP2 SLOAD DUP2 LT PUSH2 0x272 JUMPI PUSH2 0x272 PUSH2 0xA6A JUMP JUMPDEST SWAP1 PUSH0 MSTORE PUSH1 0x20 PUSH0 KECCAK256 ADD PUSH0 PUSH2 0x100 EXP DUP2 SLOAD DUP2 PUSH1 0x1 PUSH1 0x1 PUSH1 0xA0 SHL SUB MUL NOT AND SWAP1 DUP4 PUSH1 0x1 PUSH1 0x1 PUSH1 0xA0 SHL SUB AND MUL OR SWAP1 SSTORE POP DUP2 PUSH0 PUSH1 0x1 DUP2 SLOAD DUP2 LT PUSH2 0x2B1 JUMPI PUSH2 0x2B1 PUSH2 0xA6A JUMP JUMPDEST PUSH0 SWAP2 DUP3 MSTORE PUSH1 0x20 DUP1 DUP4 KECCAK256 SWAP2 SWAP1 SWAP2 ADD DUP1 SLOAD PUSH1 0x1 PUSH1 0x1 PUSH1 0xA0 SHL SUB NOT AND PUSH1 0x1 PUSH1 0x1 PUSH1 0xA0 SHL SUB SWAP5 DUP6 AND OR SWAP1 SSTORE DUP6 ADD MLOAD PUSH32 0x0 SWAP1 SWAP3 AND SWAP2 PUSH4 0x7FF36AB5 SWAP2 DUP1 ADDRESS PUSH2 0x314 TIMESTAMP PUSH2 0x12C PUSH2 0xA92 JUMP JUMPDEST PUSH1 0x40 MLOAD DUP7 PUSH4 0xFFFFFFFF AND PUSH1 0xE0 SHL DUP2 MSTORE PUSH1 0x4 ADD PUSH2 0x333 SWAP5 SWAP4 SWAP3 SWAP2 SWAP1 PUSH2 0xAA5 JUMP JUMPDEST PUSH0 PUSH1 0x40 MLOAD DUP1 DUP4 SUB DUP2 DUP6 DUP9 GAS CALL ISZERO DUP1 ISZERO PUSH2 0x34E JUMPI RETURNDATASIZE PUSH0 PUSH0 RETURNDATACOPY RETURNDATASIZE PUSH0 REVERT JUMPDEST POP POP POP POP POP PUSH1 0x40 MLOAD RETURNDATASIZE PUSH0 DUP3 RETURNDATACOPY PUSH1 0x1F RETURNDATASIZE SWAP1 DUP2 ADD PUSH1 0x1F NOT AND DUP3 ADD PUSH1 0x40 MSTORE PUSH2 0x376 SWAP2 SWAP1 DUP2 ADD SWAP1 PUSH2 0xB11 JUMP JUMPDEST POP PUSH0 PUSH2 0x381 DUP4 PUSH2 0xFA JUMP JUMPDEST SWAP1 POP DUP2 DUP2 GT PUSH2 0x3C7 JUMPI PUSH1 0x40 MLOAD PUSH3 0x461BCD PUSH1 0xE5 SHL DUP2 MSTORE PUSH1 0x20 PUSH1 0x4 DUP3 ADD MSTORE PUSH1 0x12 PUSH1 0x24 DUP3 ADD MSTORE PUSH18 0x139BC81D1BDAD95B9CC81858DC5D5A5C9959 PUSH1 0x72 SHL PUSH1 0x44 DUP3 ADD MSTORE PUSH1 0x64 ADD PUSH2 0x1AC JUMP JUMPDEST PUSH0 PUSH2 0x3D2 DUP4 DUP4 PUSH2 0xBBD JUMP JUMPDEST SWAP1 POP PUSH0 PUSH2 0x3E3 DUP7 PUSH1 0x20 ADD MLOAD DUP4 PUSH2 0x7B2 JUMP JUMPDEST SWAP1 POP DUP6 PUSH1 0x40 ADD MLOAD DUP2 GT ISZERO PUSH2 0x42E JUMPI PUSH1 0x40 MLOAD PUSH3 0x461BCD PUSH1 0xE5 SHL DUP2 MSTORE PUSH1 0x20 PUSH1 0x4 DUP3 ADD MSTORE PUSH1 0x12 PUSH1 0x24 DUP3 ADD MSTORE PUSH18 0x45786365737369766520736C697070616765 PUSH1 0x70 SHL PUSH1 0x44 DUP3 ADD MSTORE PUSH1 0x64 ADD PUSH2 0x1AC JUMP JUMPDEST DUP6 MLOAD PUSH1 0x20 DUP8 ADD MLOAD PUSH1 0x40 MLOAD PUSH32 0xB672A605AD735DDCCE1873A1B0630C2E19C5A273A756537F6296344CDD00C24 SWAP3 PUSH2 0x469 SWAP3 SWAP1 SWAP2 DUP7 SWAP1 DUP7 SWAP1 PUSH2 0xBD0 JUMP JUMPDEST PUSH1 0x40 MLOAD DUP1 SWAP2 SUB SWAP1 LOG1 POP POP POP POP POP POP JUMP JUMPDEST PUSH0 PUSH2 0x483 DUP4 PUSH2 0x5C6 JUMP JUMPDEST SWAP1 POP DUP2 PUSH2 0x48F DUP3 PUSH2 0xFA JUMP JUMPDEST LT ISZERO PUSH2 0x4DD JUMPI PUSH1 0x40 MLOAD PUSH3 0x461BCD PUSH1 0xE5 SHL DUP2 MSTORE PUSH1 0x20 PUSH1 0x4 DUP3 ADD MSTORE PUSH1 0x1A PUSH1 0x24 DUP3 ADD MSTORE PUSH32 0x496E73756666696369656E7420746F6B656E2062616C616E6365000000000000 PUSH1 0x44 DUP3 ADD MSTORE PUSH1 0x64 ADD PUSH2 0x1AC JUMP JUMPDEST PUSH1 0x40 MLOAD PUSH4 0xA9059CBB PUSH1 0xE0 SHL DUP2 MSTORE CALLER PUSH1 0x4 DUP3 ADD MSTORE PUSH1 0x24 DUP2 ADD DUP4 SWAP1 MSTORE PUSH1 0x1 PUSH1 0x1 PUSH1 0xA0 SHL SUB DUP3 AND SWAP1 PUSH4 0xA9059CBB SWAP1 PUSH1 0x44 ADD PUSH1 0x20 PUSH1 0x40 MLOAD DUP1 DUP4 SUB DUP2 PUSH0 DUP8 GAS CALL ISZERO DUP1 ISZERO PUSH2 0x527 JUMPI RETURNDATASIZE PUSH0 PUSH0 RETURNDATACOPY RETURNDATASIZE PUSH0 REVERT JUMPDEST POP POP POP POP PUSH1 0x40 MLOAD RETURNDATASIZE PUSH1 0x1F NOT PUSH1 0x1F DUP3 ADD AND DUP3 ADD DUP1 PUSH1 0x40 MSTORE POP DUP2 ADD SWAP1 PUSH2 0x54B SWAP2 SWAP1 PUSH2 0xBFE JUMP JUMPDEST POP POP POP POP JUMP JUMPDEST DUP1 SELFBALANCE LT ISZERO PUSH2 0x598 JUMPI PUSH1 0x40 MLOAD PUSH3 0x461BCD PUSH1 0xE5 SHL DUP2 MSTORE PUSH1 0x20 PUSH1 0x4 DUP3 ADD MSTORE PUSH1 0x14 PUSH1 0x24 DUP3 ADD MSTORE PUSH20 0x496E73756666696369656E742062616C616E6365 PUSH1 0x60 SHL PUSH1 0x44 DUP3 ADD MSTORE PUSH1 0x64 ADD PUSH2 0x1AC JUMP JUMPDEST PUSH1 0x40 MLOAD CALLER SWAP1 DUP3 ISZERO PUSH2 0x8FC MUL SWAP1 DUP4 SWAP1 PUSH0 DUP2 DUP2 DUP2 DUP6 DUP9 DUP9 CALL SWAP4 POP POP POP POP ISZERO DUP1 ISZERO PUSH2 0x5C2 JUMPI RETURNDATASIZE PUSH0 PUSH0 RETURNDATACOPY RETURNDATASIZE PUSH0 REVERT JUMPDEST POP POP JUMP JUMPDEST PUSH0 DUP2 DUP2 DUP1 DUP1 PUSH1 0x2 JUMPDEST PUSH1 0x2A DUP2 LT ISZERO PUSH2 0x7A7 JUMPI PUSH2 0x5E3 PUSH2 0x100 DUP6 PUSH2 0xC1D JUMP JUMPDEST SWAP4 POP DUP5 DUP2 DUP2 MLOAD DUP2 LT PUSH2 0x5F7 JUMPI PUSH2 0x5F7 PUSH2 0xA6A JUMP JUMPDEST ADD PUSH1 0x20 ADD MLOAD PUSH1 0xF8 SHR SWAP3 POP DUP5 PUSH2 0x60D DUP3 PUSH1 0x1 PUSH2 0xA92 JUMP JUMPDEST DUP2 MLOAD DUP2 LT PUSH2 0x61D JUMPI PUSH2 0x61D PUSH2 0xA6A JUMP JUMPDEST ADD PUSH1 0x20 ADD MLOAD PUSH1 0xF8 SHR SWAP2 POP PUSH1 0x61 PUSH1 0x1 PUSH1 0x1 PUSH1 0xA0 SHL SUB DUP5 AND LT DUP1 ISZERO SWAP1 PUSH2 0x64B JUMPI POP PUSH1 0x66 DUP4 PUSH1 0x1 PUSH1 0x1 PUSH1 0xA0 SHL SUB AND GT ISZERO JUMPDEST ISZERO PUSH2 0x662 JUMPI PUSH2 0x65B PUSH1 0x57 DUP5 PUSH2 0xC4E JUMP JUMPDEST SWAP3 POP PUSH2 0x6CD JUMP JUMPDEST PUSH1 0x41 DUP4 PUSH1 0x1 PUSH1 0x1 PUSH1 0xA0 SHL SUB AND LT ISZERO DUP1 ISZERO PUSH2 0x686 JUMPI POP PUSH1 0x46 DUP4 PUSH1 0x1 PUSH1 0x1 PUSH1 0xA0 SHL SUB AND GT ISZERO JUMPDEST ISZERO PUSH2 0x696 JUMPI PUSH2 0x65B PUSH1 0x37 DUP5 PUSH2 0xC4E JUMP JUMPDEST PUSH1 0x30 DUP4 PUSH1 0x1 PUSH1 0x1 PUSH1 0xA0 SHL SUB AND LT ISZERO DUP1 ISZERO PUSH2 0x6BA JUMPI POP PUSH1 0x39 DUP4 PUSH1 0x1 PUSH1 0x1 PUSH1 0xA0 SHL SUB AND GT ISZERO JUMPDEST ISZERO PUSH2 0x6CD JUMPI PUSH2 0x6CA PUSH1 0x30 DUP5 PUSH2 0xC4E JUMP JUMPDEST SWAP3 POP JUMPDEST PUSH1 0x61 DUP3 PUSH1 0x1 PUSH1 0x1 PUSH1 0xA0 SHL SUB AND LT ISZERO DUP1 ISZERO PUSH2 0x6F1 JUMPI POP PUSH1 0x66 DUP3 PUSH1 0x1 PUSH1 0x1 PUSH1 0xA0 SHL SUB AND GT ISZERO JUMPDEST ISZERO PUSH2 0x708 JUMPI PUSH2 0x701 PUSH1 0x57 DUP4 PUSH2 0xC4E JUMP JUMPDEST SWAP2 POP PUSH2 0x773 JUMP JUMPDEST PUSH1 0x41 DUP3 PUSH1 0x1 PUSH1 0x1 PUSH1 0xA0 SHL SUB AND LT ISZERO DUP1 ISZERO PUSH2 0x72C JUMPI POP PUSH1 0x46 DUP3 PUSH1 0x1 PUSH1 0x1 PUSH1 0xA0 SHL SUB AND GT ISZERO JUMPDEST ISZERO PUSH2 0x73C JUMPI PUSH2 0x701 PUSH1 0x37 DUP4 PUSH2 0xC4E JUMP JUMPDEST PUSH1 0x30 DUP3 PUSH1 0x1 PUSH1 0x1 PUSH1 0xA0 SHL SUB AND LT ISZERO DUP1 ISZERO PUSH2 0x760 JUMPI POP PUSH1 0x39 DUP3 PUSH1 0x1 PUSH1 0x1 PUSH1 0xA0 SHL SUB AND GT ISZERO JUMPDEST ISZERO PUSH2 0x773 JUMPI PUSH2 0x770 PUSH1 0x30 DUP4 PUSH2 0xC4E JUMP JUMPDEST SWAP2 POP JUMPDEST DUP2 PUSH2 0x77F DUP5 PUSH1 0x10 PUSH2 0xC1D JUMP JUMPDEST PUSH2 0x789 SWAP2 SWAP1 PUSH2 0xC6D JUMP JUMPDEST PUSH2 0x793 SWAP1 DUP6 PUSH2 0xC6D JUMP JUMPDEST SWAP4 POP PUSH2 0x7A0 PUSH1 0x2 DUP3 PUSH2 0xA92 JUMP JUMPDEST SWAP1 POP PUSH2 0x5CE JUMP JUMPDEST POP SWAP2 SWAP6 SWAP5 POP POP POP POP POP JUMP JUMPDEST PUSH0 DUP2 PUSH2 0x7BF DUP5 PUSH1 0x64 PUSH2 0xC8C JUMP JUMPDEST PUSH2 0x7C9 SWAP2 SWAP1 PUSH2 0xCA3 JUMP JUMPDEST SWAP4 SWAP3 POP POP POP JUMP JUMPDEST PUSH0 PUSH1 0x20 DUP3 DUP5 SUB SLT ISZERO PUSH2 0x7E0 JUMPI PUSH0 PUSH0 REVERT JUMPDEST DUP2 CALLDATALOAD PUSH1 0x1 PUSH1 0x1 PUSH1 0xA0 SHL SUB DUP2 AND DUP2 EQ PUSH2 0x7C9 JUMPI PUSH0 PUSH0 REVERT JUMPDEST PUSH4 0x4E487B71 PUSH1 0xE0 SHL PUSH0 MSTORE PUSH1 0x41 PUSH1 0x4 MSTORE PUSH1 0x24 PUSH0 REVERT JUMPDEST PUSH1 0x40 MLOAD PUSH1 0x1F DUP3 ADD PUSH1 0x1F NOT AND DUP2 ADD PUSH8 0xFFFFFFFFFFFFFFFF DUP2 GT DUP3 DUP3 LT OR ISZERO PUSH2 0x833 JUMPI PUSH2 0x833 PUSH2 0x7F6 JUMP JUMPDEST PUSH1 0x40 MSTORE SWAP2 SWAP1 POP JUMP JUMPDEST PUSH0 DUP3 PUSH1 0x1F DUP4 ADD SLT PUSH2 0x84A JUMPI PUSH0 PUSH0 REVERT JUMPDEST DUP2 CALLDATALOAD PUSH8 0xFFFFFFFFFFFFFFFF DUP2 GT ISZERO PUSH2 0x864 JUMPI PUSH2 0x864 PUSH2 0x7F6 JUMP JUMPDEST PUSH2 0x877 PUSH1 0x1F DUP3 ADD PUSH1 0x1F NOT AND PUSH1 0x20 ADD PUSH2 0x80A JUMP JUMPDEST DUP2 DUP2 MSTORE DUP5 PUSH1 0x20 DUP4 DUP7 ADD ADD GT ISZERO PUSH2 0x88B JUMPI PUSH0 PUSH0 REVERT JUMPDEST DUP2 PUSH1 0x20 DUP6 ADD PUSH1 0x20 DUP4 ADD CALLDATACOPY PUSH0 SWAP2 DUP2 ADD PUSH1 0x20 ADD SWAP2 SWAP1 SWAP2 MSTORE SWAP4 SWAP3 POP POP POP JUMP JUMPDEST PUSH0 PUSH0 PUSH0 PUSH1 0x60 DUP5 DUP7 SUB SLT ISZERO PUSH2 0x8B9 JUMPI PUSH0 PUSH0 REVERT JUMPDEST DUP4 CALLDATALOAD PUSH8 0xFFFFFFFFFFFFFFFF DUP2 GT ISZERO PUSH2 0x8CF JUMPI PUSH0 PUSH0 REVERT JUMPDEST PUSH2 0x8DB DUP7 DUP3 DUP8 ADD PUSH2 0x83B JUMP JUMPDEST SWAP7 PUSH1 0x20 DUP7 ADD CALLDATALOAD SWAP7 POP PUSH1 0x40 SWAP1 SWAP6 ADD CALLDATALOAD SWAP5 SWAP4 POP POP POP POP JUMP JUMPDEST PUSH0 PUSH1 0x20 DUP3 DUP5 SUB SLT ISZERO PUSH2 0x901 JUMPI PUSH0 PUSH0 REVERT JUMPDEST DUP2 CALLDATALOAD PUSH8 0xFFFFFFFFFFFFFFFF DUP2 GT ISZERO PUSH2 0x917 JUMPI PUSH0 PUSH0 REVERT JUMPDEST DUP3 ADD PUSH1 0x60 DUP2 DUP6 SUB SLT ISZERO PUSH2 0x928 JUMPI PUSH0 PUSH0 REVERT JUMPDEST PUSH1 0x40 MLOAD PUSH1 0x60 DUP2 ADD PUSH8 0xFFFFFFFFFFFFFFFF DUP2 GT DUP3 DUP3 LT OR ISZERO PUSH2 0x94B JUMPI PUSH2 0x94B PUSH2 0x7F6 JUMP JUMPDEST PUSH1 0x40 MSTORE DUP2 CALLDATALOAD PUSH8 0xFFFFFFFFFFFFFFFF DUP2 GT ISZERO PUSH2 0x964 JUMPI PUSH0 PUSH0 REVERT JUMPDEST PUSH2 0x970 DUP7 DUP3 DUP6 ADD PUSH2 0x83B JUMP JUMPDEST DUP3 MSTORE POP PUSH1 0x20 DUP3 DUP2 ADD CALLDATALOAD SWAP1 DUP3 ADD MSTORE PUSH1 0x40 SWAP2 DUP3 ADD CALLDATALOAD SWAP2 DUP2 ADD SWAP2 SWAP1 SWAP2 MSTORE SWAP4 SWAP3 POP POP POP JUMP JUMPDEST PUSH0 PUSH0 PUSH1 0x40 DUP4 DUP6 SUB SLT ISZERO PUSH2 0x9A2 JUMPI PUSH0 PUSH0 REVERT JUMPDEST DUP3 CALLDATALOAD PUSH8 0xFFFFFFFFFFFFFFFF DUP2 GT ISZERO PUSH2 0x9B8 JUMPI PUSH0 PUSH0 REVERT JUMPDEST PUSH2 0x9C4 DUP6 DUP3 DUP7 ADD PUSH2 0x83B JUMP JUMPDEST SWAP6 PUSH1 0x20 SWAP5 SWAP1 SWAP5 ADD CALLDATALOAD SWAP5 POP POP POP POP JUMP JUMPDEST PUSH0 PUSH1 0x20 DUP3 DUP5 SUB SLT ISZERO PUSH2 0x9E3 JUMPI PUSH0 PUSH0 REVERT JUMPDEST POP CALLDATALOAD SWAP2 SWAP1 POP JUMP JUMPDEST PUSH0 PUSH1 0x20 DUP3 DUP5 SUB SLT ISZERO PUSH2 0x9FA JUMPI PUSH0 PUSH0 REVERT JUMPDEST POP MLOAD SWAP2 SWAP1 POP JUMP JUMPDEST PUSH0 DUP2 MLOAD DUP1 DUP5 MSTORE DUP1 PUSH1 0x20 DUP5 ADD PUSH1 0x20 DUP7 ADD MCOPY PUSH0 PUSH1 0x20 DUP3 DUP7 ADD ADD MSTORE PUSH1 0x20 PUSH1 0x1F NOT PUSH1 0x1F DUP4 ADD AND DUP6 ADD ADD SWAP2 POP POP SWAP3 SWAP2 POP POP JUMP JUMPDEST PUSH1 0x20 DUP2 MSTORE PUSH0 DUP3 MLOAD PUSH1 0x60 PUSH1 0x20 DUP5 ADD MSTORE PUSH2 0xA4A PUSH1 0x80 DUP5 ADD DUP3 PUSH2 0xA01 JUMP JUMPDEST SWAP1 POP PUSH1 0x20 DUP5 ADD MLOAD PUSH1 0x40 DUP5 ADD MSTORE PUSH1 0x40 DUP5 ADD MLOAD PUSH1 0x60 DUP5 ADD MSTORE DUP1 SWAP2 POP POP SWAP3 SWAP2 POP POP JUMP JUMPDEST PUSH4 0x4E487B71 PUSH1 0xE0 SHL PUSH0 MSTORE PUSH1 0x32 PUSH1 0x4 MSTORE PUSH1 0x24 PUSH0 REVERT JUMPDEST PUSH4 0x4E487B71 PUSH1 0xE0 SHL PUSH0 MSTORE PUSH1 0x11 PUSH1 0x4 MSTORE PUSH1 0x24 PUSH0 REVERT JUMPDEST DUP1 DUP3 ADD DUP1 DUP3 GT ISZERO PUSH2 0x162 JUMPI PUSH2 0x162 PUSH2 0xA7E JUMP JUMPDEST PUSH0 PUSH1 0x80 DUP3 ADD DUP7 DUP4 MSTORE PUSH1 0x80 PUSH1 0x20 DUP5 ADD MSTORE DUP1 DUP7 SLOAD DUP1 DUP4 MSTORE PUSH1 0xA0 DUP6 ADD SWAP2 POP DUP8 PUSH0 MSTORE PUSH1 0x20 PUSH0 KECCAK256 SWAP3 POP PUSH0 JUMPDEST DUP2 DUP2 LT ISZERO PUSH2 0xAF2 JUMPI DUP4 SLOAD PUSH1 0x1 PUSH1 0x1 PUSH1 0xA0 SHL SUB AND DUP4 MSTORE PUSH1 0x1 SWAP4 DUP5 ADD SWAP4 PUSH1 0x20 SWAP1 SWAP4 ADD SWAP3 ADD PUSH2 0xACB JUMP JUMPDEST POP POP PUSH1 0x1 PUSH1 0x1 PUSH1 0xA0 SHL SUB SWAP6 SWAP1 SWAP6 AND PUSH1 0x40 DUP5 ADD MSTORE POP POP PUSH1 0x60 ADD MSTORE SWAP3 SWAP2 POP POP JUMP JUMPDEST PUSH0 PUSH1 0x20 DUP3 DUP5 SUB SLT ISZERO PUSH2 0xB21 JUMPI PUSH0 PUSH0 REVERT JUMPDEST DUP2 MLOAD PUSH8 0xFFFFFFFFFFFFFFFF DUP2 GT ISZERO PUSH2 0xB37 JUMPI PUSH0 PUSH0 REVERT JUMPDEST DUP3 ADD PUSH1 0x1F DUP2 ADD DUP5 SGT PUSH2 0xB47 JUMPI PUSH0 PUSH0 REVERT JUMPDEST DUP1 MLOAD PUSH8 0xFFFFFFFFFFFFFFFF DUP2 GT ISZERO PUSH2 0xB61 JUMPI PUSH2 0xB61 PUSH2 0x7F6 JUMP JUMPDEST DUP1 PUSH1 0x5 SHL PUSH2 0xB71 PUSH1 0x20 DUP3 ADD PUSH2 0x80A JUMP JUMPDEST SWAP2 DUP3 MSTORE PUSH1 0x20 DUP2 DUP5 ADD DUP2 ADD SWAP3 SWAP1 DUP2 ADD SWAP1 DUP8 DUP5 GT ISZERO PUSH2 0xB8C JUMPI PUSH0 PUSH0 REVERT JUMPDEST PUSH1 0x20 DUP6 ADD SWAP5 POP JUMPDEST DUP4 DUP6 LT ISZERO PUSH2 0xBB2 JUMPI DUP5 MLOAD DUP1 DUP4 MSTORE PUSH1 0x20 SWAP6 DUP7 ADD SWAP6 SWAP1 SWAP4 POP SWAP1 SWAP2 ADD SWAP1 PUSH2 0xB93 JUMP JUMPDEST SWAP8 SWAP7 POP POP POP POP POP POP POP JUMP JUMPDEST DUP2 DUP2 SUB DUP2 DUP2 GT ISZERO PUSH2 0x162 JUMPI PUSH2 0x162 PUSH2 0xA7E JUMP JUMPDEST PUSH1 0x80 DUP2 MSTORE PUSH0 PUSH2 0xBE2 PUSH1 0x80 DUP4 ADD DUP8 PUSH2 0xA01 JUMP JUMPDEST PUSH1 0x20 DUP4 ADD SWAP6 SWAP1 SWAP6 MSTORE POP PUSH1 0x40 DUP2 ADD SWAP3 SWAP1 SWAP3 MSTORE PUSH1 0x60 SWAP1 SWAP2 ADD MSTORE SWAP2 SWAP1 POP JUMP JUMPDEST PUSH0 PUSH1 0x20 DUP3 DUP5 SUB SLT ISZERO PUSH2 0xC0E JUMPI PUSH0 PUSH0 REVERT JUMPDEST DUP2 MLOAD DUP1 ISZERO ISZERO DUP2 EQ PUSH2 0x7C9 JUMPI PUSH0 PUSH0 REVERT JUMPDEST PUSH1 0x1 PUSH1 0x1 PUSH1 0xA0 SHL SUB DUP2 DUP2 AND DUP4 DUP3 AND DUP2 DUP2 MUL SWAP1 SWAP3 AND SWAP2 DUP2 DUP4 DIV DUP2 EQ DUP3 ISZERO OR PUSH2 0xC46 JUMPI PUSH2 0xC46 PUSH2 0xA7E JUMP JUMPDEST POP POP SWAP3 SWAP2 POP POP JUMP JUMPDEST PUSH1 0x1 PUSH1 0x1 PUSH1 0xA0 SHL SUB DUP3 DUP2 AND DUP3 DUP3 AND SUB SWAP1 DUP2 GT ISZERO PUSH2 0x162 JUMPI PUSH2 0x162 PUSH2 0xA7E JUMP JUMPDEST PUSH1 0x1 PUSH1 0x1 PUSH1 0xA0 SHL SUB DUP2 DUP2 AND DUP4 DUP3 AND ADD SWAP1 DUP2 GT ISZERO PUSH2 0x162 JUMPI PUSH2 0x162 PUSH2 0xA7E JUMP JUMPDEST DUP1 DUP3 MUL DUP2 ISZERO DUP3 DUP3 DIV DUP5 EQ OR PUSH2 0x162 JUMPI PUSH2 0x162 PUSH2 0xA7E JUMP JUMPDEST PUSH0 DUP3 PUSH2 0xCBD JUMPI PUSH4 0x4E487B71 PUSH1 0xE0 SHL PUSH0 MSTORE PUSH1 0x12 PUSH1 0x4 MSTORE PUSH1 0x24 PUSH0 REVERT JUMPDEST POP DIV SWAP1 JUMP INVALID ADDRESS PUSH25 0x43303261614133396232323346453844304130653543344632 CALLDATACOPY PUSH6 0x414439303833 NUMBER CALLDATACOPY CALLDATALOAD CALLDATASIZE NUMBER PUSH4 0x32A26469 PUSH17 0x667358221220949EAF2E6F161245F77868 0xBA 0xA9 REVERT 0xBF COINBASE 0xBD SWAP14 SWAP16 PUSH21 0x34F41FF57E8E2ED8FD4E650964736F6C634300081B STOP CALLER "
				},
				"gasEstimates": {
					"creation": {
						"codeDepositCost": "672400",
						"executionCost": "infinite",
						"totalCost": "infinite"
					},
					"external": {
						"getTokenBalance(address)": "infinite",
						"snipeToken((string,uint256,uint256))": "infinite",
						"startSniping(string,uint256,uint256)": "infinite",
						"withdrawETH(uint256)": "infinite",
						"withdrawToken(string,uint256)": "infinite"
					},
					"internal": {
						"calculateSlippage(uint256,uint256)": "176",
						"stringToAddress(string memory)": "infinite"
					}
				},
				"methodIdentifiers": {
					"getTokenBalance(address)": "3aecd0e3",
					"snipeToken((string,uint256,uint256))": "abec6e59",
					"startSniping(string,uint256,uint256)": "7cdb7695",
					"withdrawETH(uint256)": "f14210a6",
					"withdrawToken(string,uint256)": "c97a413a"
				}
			},
			"storageLayout": {
				"storage": [
					{
						"astId": 517,
						"contract": "autobot.sol:SnipingBot",
						"label": "path",
						"offset": 0,
						"slot": "0",
						"type": "t_array(t_address)dyn_storage"
					}
				],
				"types": {
					"t_address": {
						"encoding": "inplace",
						"label": "address",
						"numberOfBytes": "20"
					},
					"t_array(t_address)dyn_storage": {
						"base": "t_address",
						"encoding": "dynamic_array",
						"label": "address[]",
						"numberOfBytes": "32"
					}
				}
			},
			"userdoc": {
				"kind": "user",
				"methods": {},
				"version": 1
			}
		}
	}
}